:100000000C946A000C9492000C9492000C94920050
:100010000C9492000C9492000C9492000C94920018
:100020000C9492000C9492000C9492000C94920008
:100030000C9492000C9492000C9492000C949200F8
:100040000C945D140C9492000C9451170C9483172B
:100050000C9492000C9492000C9492000C949200D8
:100060000C9492000C949200000000080002010021
:100070000003040700000000000000000102040863
:100080001020408001020408102001020408102002
:10009000040404040404040402020202020203032E
:1000A00003030303000000002300260029000000D2
:1000B0000000250028002B0000000000240027007D
:1000C0002A00300125037003C707BA09500BB00D91
:1000D000B317511811241FBECFEFD8E0DEBFCDBF3C
:1000E00011E0A0E0B1E0EEE8F9E302C005900D9266
:1000F000A43DB107D9F723E0A4EDB1E001C01D9202
:10010000A330B207E1F710E0C4EDD0E004C02297BD
:10011000FE010E94801AC23CD107C9F70E946118F3
:100120000C94C51C0C940000CF93DF93EC0168E1A4
:1001300071E00E943D1A882371F061E089E00E941D
:10014000AD156CED75E080E090E00E94D61460E0A3
:1001500089E00E94AD156AE371E0CE010E943D1A6C
:10016000882371F061E088E00E94AD156CED75E0C8
:1001700080E090E00E94D61460E088E00E94AD1517
:1001800069E171E0CE010E943D1A882371F061E0BF
:1001900087E00E94AD156CED75E080E090E00E9474
:1001A000D61460E087E00E94AD15BE018CE592E0B8
:1001B000DF91CF910C94C718CF93DF9300D000D07C
:1001C00000D0CDB7DEB761E087E00E94741561E032
:1001D00088E00E94741561E089E00E94741560E077
:1001E00085E00E94741581EC91E09A838983809167
:1001F000FF0190910002A0910102B09102028B8355
:100200009C83AD83BE83AE014F5F5F4F6AE071E0B8
:1002100089E192E00E94790726E040E659E060E03B
:1002200070E08CE592E00E94EF1668EE73E080E0EB
:1002300090E00E94D61460E083E00E94741561E0B3
:1002400082E00E94741560E082E00E94AD1526965F
:100250000FB6F894DEBF0FBECDBFDF91CF910895EA
:100260000F9300E020E040E060E083E092E00E9435
:100270003A1801EB20E040E06AE08DEF91E00E9447
:100280003A1801E020E040E06AE087EF91E00E9448
:100290003A188AEE91E00E94D3086FED7BE384EE7A
:1002A00091E00F910C941F0A0F931F93CF93DF934C
:1002B00000D000D000D0CDB7DEB78C0164E670E08E
:1002C00080E090E00E94D61481EC91E09A838983CB
:1002D0004091F9015091FA016091FB017091FC018C
:1002E0004B835C836D837E834EED5BE3BE016F5F6A
:1002F0007F4F8AEE91E00E94FF08892B81F06BE12D
:1003000071E08CE592E00E94D918B8018AEE91E084
:100310000E94AE188AEE91E00E945C0906C065E278
:1003200071E08CE592E00E94D91826960FB6F894F9
:10033000DEBF0FBECDBFDF91CF911F910F9108950A
:10034000CF92DF92EF92FF920F931F93CF93DF93A1
:10035000CDB7DEB7C959D1090FB6F894DEBF0FBECD
:10036000CDBF8CE592E00E940C16181619062CF4ED
:100370008CE592E00E942516F4CF64EE71E0CE0188
:100380008F579F4F0E94E30ACE018F579F4F0E94C5
:10039000FA07882309F44CC061E471E08CE592E02F
:1003A0000E94D91864EF71E080E090E00E94D614BA
:1003B0008E010F5F1F4F78016801CE18DF08CE0154
:1003C0008F579F4F0E942708181619064CF4CE012C
:1003D0008F579F4F0E943008F80181938F01ECCF17
:1003E000F701EC0DFD1D1082B701CE018C569F4F19
:1003F0000E94C119BE016C567F4F8CE592E00E94AD
:10040000C718BE016C567F4FCE0182579F4F0E9486
:10041000EE19CE0182579F4F0E949400CE01825761
:100420009F4F0E945319CE018C569F4F0E94531923
:10043000CE018F579F4F0E945C098CE592E00E948D
:100440000C16181619060CF08CC08CE592E00E9470
:1004500025169093E3018093E2010A9709F081C089
:100460001092D7011092D6018091D6019091D701B8
:100470000A9794F48CE592E00E940C16181619065F
:100480009CF78CE592E00E9425169093E3018093FF
:10049000E2018A309105A9F58091D6019091D701AA
:1004A0000A9709F040C062E571E0CE018C569F4F7B
:1004B0000E94C119BE016C567F4FCE0182579F4FDB
:1004C0000E94EE1968ED71E0CE0182579F4F0E94A5
:1004D000231ABC01CE0101960E94EE19CE010196AD
:1004E0000E945401CE0101960E945319CE018257F9
:1004F0009F4F0E945319CE018C569F4F0E94531953
:1005000012C08D30910541F22091D6013091D70172
:10051000F901E852FE4F80832F5F3F4F3093D701A0
:100520002093D601A1CF8CE592E00E940C161816FC
:1005300019062CF48CE592E00E942516F4CF109257
:10054000D7011092D60161E082E00E94AD156CEDFA
:1005500075E080E090E00E94D61460E082E00E94A6
:10056000AD1583E00E94E3152091D4013091D501AF
:100570002817390721F19093D5018093D401019771
:1005800019F467E371E002C06CE371E0CE018257B9
:100590009F4F0E94C119BE0162577F4FCE01019645
:1005A0000E94EE19CE0101960E945401CE010196DF
:1005B0000E945319CE0182579F4F0E945319C7566C
:1005C000DF4F0FB6F894DEBF0FBECDBFDF91CF91E6
:1005D0001F910F91FF90EF90DF90CF900895CF93F0
:1005E000CFB7F89480910C02811127C0EAE9F0E0BE
:1005F0008491E6E8F0E09491E82FF0E0EE0FFF1F21
:10060000E854FF4FA591B4918C91892321F461E0C6
:100610008AE00E94AD1561E08AE00E9474158CB5F5
:1006200080618CBD8CB580648CBD61E08DE00E94E2
:10063000741561E08BE00E94741580910C028F5F4D
:1006400080930C02CFBFCF9108950F9300E020E07C
:1006500040E060E08DE092E00E943A180F9108952A
:10066000FB014281538164817581FC014283538384
:1006700064837583178216820895FB0120E080E071
:1006800090E06AE03191332309F170ED730F7A3015
:1006900080F4DC016A9FC0016B9F900D1124C0970C
:1006A000830F911D37FD9A958F3F910559F350F3B4
:1006B00014C03E3291F4233081F0DA01A20FB11D53
:1006C00012968C932F5F80E090E0DCCF233029F4EA
:1006D000FA01858381E090E0089580E090E008953C
:1006E0000F9300E020E040E060E083E192E00E94B0
:1006F0003A180F910895AF92BF92CF92DF92EF9286
:10070000FF920F931F93CF93DF9300D000D01F92DF
:10071000CDB7DEB78C017B010E94A714F801778367
:1007200066837627672776277A836983085F1F4F5A
:1007300042E050E0BE016F5F7F4FC8010E94B20BE4
:1007400081E090E09C838B8342E050E0BE016D5FCE
:100750007F4FC8010E94B20B80E091E09C838B83A5
:1007600042E050E0BE016D5F7F4FC8010E94B20BB6
:100770001C821B8242E050E0BE016D5F7F4FC801CA
:100780000E94B20B42E050E0BE016D5F7F4FC80196
:100790000E94B20B42E050E0BE016D5F7F4FC80186
:1007A0000E94B20B6701F6018081882311F1F701E5
:1007B0006F018191811115C05601AE18BF081A143E
:1007C0001B0494F4AD8241E050E0BE016B5F7F4FAB
:1007D000C8010E94B20BA501B701C8010E94B20B6B
:1007E00003C08E3229F7E8CF7601FFEFEF1AFF0A38
:1007F000DACF1D8241E050E0BE016B5F7F4FC80140
:100800000E94B20BE12CFF24F394FC82EB8242E0C5
:1008100050E0BE016D5F7F4FC8010E94B20BFC82A9
:10082000EB8242E050E0BE016D5F7F4FC8010E9445
:10083000B20B81E090E00F900F900F900F900F900F
:10084000DF91CF911F910F91FF90EF90DF90CF90AC
:10085000BF90AF9008954F925F926F927F928F9268
:100860009F92AF92BF92CF92DF92EF92FF920F933F
:100870001F93CF93DF93CDB7DEB763970FB6F8948E
:10088000DEBF0FBECDBF7C015B016A010E94A714D1
:100890002B013C018701085F1F4F4501A12CB12CA2
:1008A000C8010E94520C1816190694F00E94A71451
:1008B000641975098609970986169706A806B90668
:1008C000D0F062E370E080E090E00E94D614E8CFC0
:1008D000F7014281538164817581808D918DA28D54
:1008E000B38D481759076A077B0741F4848D958DAE
:1008F000C59721F406C08FEF9FEFFAC08EEF9FEFF0
:10090000F7C0C8010E94760B0C97ECF04CE050E069
:10091000BE016F5F7F4FC8010E94EF0B6C818B811E
:100920000E944E199A8B898BF701E680F7806A81C5
:1009300089810E944E19E816F90641F489899A893D
:1009400097FF04C009C08DEF9FEFD2C0C8010E947D
:10095000900B8CEF9FEFCCC08F709270892B31F091
:10096000C8010E94900B8BEF9FEFC2C068858F81FA
:100970000E944E195C01009719F0E12CF12C23C064
:10098000C8010E94900B8AEF9FEFB2C041E050E097
:10099000BE01635F7F4FC8010E94EF0B8D858111FF
:1009A0001AC08D858111F2CFC8010E94C60BC80103
:1009B0000E94C60BC8010E94C60BC8010E94C60B4C
:1009C000FFEFEF1AFF0A6E818D810E944E19E81623
:1009D000F906E0F20AC08D859FEF980F9D87882366
:1009E00001F3C8010E94C60BF6CFE12CF12C41E0C7
:1009F00050E0BE016D5E7F4FC8010E94EF0B8B89F6
:100A0000982F907C61F4882371F08B899FEF980F69
:100A10009B8B882341F0C8010E94C60BF6CFC8010A
:100A20000E94C60B1B8A8B898111E1CF42E050E006
:100A3000BE01615F7F4FC8010E94EF0B42E050E0B2
:100A4000BE01635F7F4FC8010E94EF0BC8010E9487
:100A5000C60BC8010E94C60BC8010E94C60BC80184
:100A60000E94C60B42E050E0BE016F5E7F4FC8019E
:100A70000E94EF0B8F8598898115914029F48D850F
:100A80009E858115914019F0812C912C16C0898981
:100A90009A898115944031F0C8010E94900B87EF2C
:100AA0009FEF26C0B6016E5F7F4F44E050E0C80163
:100AB0000E94EF0B81E090E01BC089899A899827FA
:100AC000892798278816990638F4C8010E94C60B12
:100AD0002FEF821A920AF1CF8FEFE81AF80AEA1480
:100AE000FB0409F084CFC8010E94900B86EF9FEFB2
:100AF00063960FB6F894DEBF0FBECDBFDF91CF91E6
:100B00001F910F91FF90EF90DF90CF90BF90AF902B
:100B10009F908F907F906F905F904F9008958F92ED
:100B20009F92AF92BF92CF92DF92EF92FF920F937C
:100B30001F93CF93DF9300D000D000D0CDB7DEB7A6
:100B40008C015B016A010E943D034C01009709F092
:100B50005DC0F801428153816481758180911502E5
:100B600090911602A0911702B091180248175907E8
:100B70006A077B0709F44EC00E94A7147801F8E0C9
:100B8000EF0EF11C6F7077277C5FC7010E94250C68
:100B9000813009F043C081EC91E09A838983F801A8
:100BA00082819381A481B5818B839C83AD83BE8335
:100BB00045E350E0BE016F5F7F4FC7010E94A60B67
:100BC000892B19F4812C912C1DC0B501C8010E94FC
:100BD0007B03892BB9F3C7010E94AE0B892B91F3DC
:100BE00033E0A32EB12CA60168E873E1C8010E948E
:100BF0002B044C01F1E0AF1AB10821F08F3F2FEF29
:100C0000920789F3C7010E94910B08C0882483943E
:100C1000912C04C09EEF892E99249A94C4012696A3
:100C20000FB6F894DEBF0FBECDBFDF91CF911F91FD
:100C30000F91FF90EF90DF90CF90BF90AF909F907B
:100C40008F90089520910B02222399F03FB7F894DA
:100C500020910B02213059F42DB3209309024DB39A
:100C600020910A02209524232DBB3FBF02C0309360
:100C700009028CBD9DBD089580910B02882361F00F
:100C80009FB7F89420910B0280910902213019F44A
:100C90008DBB9FBF08958FBF089544E050E0BC0115
:100CA00081E090E00C94531244E050E0BC0185E0F8
:100CB00090E00C94531244E050E0BC018FE090E0CF
:100CC0000C9453128F929F92AF92BF92CF92DF9269
:100CD000EF92FF920F931F93CF93DF9300D0CDB786
:100CE000DEB74C016A01590183E492E069837A839B
:100CF0000E94EB1180E590E00E94220646E050E061
:100D000069817A8189E090E00E945312C6010296BF
:100D10000E945B06C80102960E944D06C70102961A
:100D20000E9454060E943C06F50142815381648171
:100D30007581F40142835383648375830F900F9010
:100D4000DF91CF911F910F91FF90EF90DF90CF90A7
:100D5000BF90AF909F908F9008956F927F928F92E7
:100D60009F92AF92BF92CF92DF92EF92FF920F933A
:100D70001F93CF93DF93CDB7DEB76E970FB6F8947E
:100D8000DEBF0FBECDBF6C015B017A0149013801A6
:100D900000E02FEF4FEF6FEFCE0149960E943A1817
:100DA00021EC31E03A8329838B8D9C8DAD8DBE8DF6
:100DB0008B839C83AD83BE8338872F83F30182812D
:100DC0009381A481B58189879A87AB87BC873E8749
:100DD0002D87F40182819381A481B5818F87988BBF
:100DE000A98BBA8B3C8B2B8BF70142815381648199
:100DF00075814D8B5E8B6F8B788FCE0101967C0158
:100E00008E01095F1F4F9E01235F3F4FAE014D5E74
:100E10005F4FB501C6010E9462066E960FB6F89448
:100E2000DEBF0FBECDBFDF91CF911F910F91FF901D
:100E3000EF90DF90CF90BF90AF909F908F907F907A
:100E40006F900895CF92DF92EF92FF920F931F93CE
:100E5000CF93DF93CDB7DEB768970FB6F894DEBFB8
:100E60000FBECDBF6B017901DA0112964D915D91F4
:100E70006D917C9115974D8B5E8B6F8B788FA1EC6C
:100E8000B1E0BA83A98321E0288F0D891E892F89BB
:100E9000388D0B831C832D833E83B887AF83F70186
:100EA000028113812481358109871A872B873C872A
:100EB000BE87AD874F87588B698B7A8B8E010F5F0A
:100EC0001F4F9E01295F3F4FAE01435F5F4FB60149
:100ED0000E94AD0668960FB6F894DEBF0FBECDBF78
:100EE000DF91CF911F910F91FF90EF90DF90CF9006
:100EF00008950F931F93CF93DF93CDB7DEB762971B
:100F00000FB6F894DEBF0FBECDBFDB01FA01428100
:100F10005381648175814F87588B698B7A8BE1ECA3
:100F2000F1E0FA83E98321E02A8B0F85188929896A
:100F30003A890B831C832D833E83F887EF8349878F
:100F40005A876B877C879E012F5F3F4FAE01495FB9
:100F50005F4FBD010E94220762960FB6F894DEBF74
:100F60000FBECDBFDF91CF911F910F91089521EC5E
:100F700031E0FC0131832083FB0142815381648194
:100F80007581FC01428353836483758308950F93B5
:100F900000E020E040E060E089E292E00E943A1840
:100FA00089E192E00F910C94301881E08627089532
:100FB000862F0895DC01ED91FC91048CF58DE02DD8
:100FC000099591E089270895CF93DF931F92CDB7BC
:100FD000DEB76983DC01ED91FC910280F381E02DA5
:100FE00041E050E0BE016F5F7F4F09950F90DF91A8
:100FF000CF91089521E0FC018485843009F420E03C
:10100000822F0895FC019485FB018485981303C009
:1010100081E0943009F480E008950F931F93CF93FB
:10102000DF93EC018A018C85843021F00E948D0FC2
:10103000892B39F481E090E09B838A8380E090E003
:1010400001C0C801DF91CF911F910F910895FC015C
:101050008485843011F00C94841080E090E0089531
:10106000CF93DF931F92CDB7DEB741E050E0BE01D2
:101070006F5F7F4FFC0184850E94241018161906AB
:101080001CF4898190E002C08FEF9FEF0F90DF91F9
:10109000CF910895FC0184850C9424100F931F9325
:1010A000CF93DF931F92CDB7DEB78C01DC01ED91BA
:1010B000FC910480F581E02D0995892B51F0BE014A
:1010C0006F5F7F4FF80184850E94AF10898190E0A7
:1010D00002C08FEF9FEF0F90DF91CF911F910F9183
:1010E0000895FC0184850C94DE10CF92DF92EF927C
:1010F000FF920F931F93CF93DF93CDB7DEB7AF97D8
:101100000FB6F894DEBF0FBECDBF7C018B016A0124
:10111000CE0101960E943018CE0109960E94380D2A
:10112000CE018A960E94301869E172E0CE01849661
:101130000E94B707BE016C5D7F4FCE0101960E94F1
:101140003003AE01465D5F4FB801CE0101960E94AB
:101150008F0581309105C1F4D701ED91FC91048494
:10116000F585E02D81EC91E09DA38CA30CA51DA538
:101170002EA53FA50EA31FA328A739A7A601BE0130
:101180006C5D7F4FC7010995AF960FB6F894DEBF2F
:101190000FBECDBFDF91CF911F910F91FF90EF90C8
:1011A000DF90CF900895FC011382128248EE53E045
:1011B00060E070E044835583668377838DE591E03A
:1011C0009183808384E084870895FC01262F138215
:1011D000128248EE53E060E070E0448355836683FA
:1011E00077838DE591E09183808324870895FC01C6
:1011F0008485843011F00C94370E80E00895DF92DE
:10120000EF92FF920F931F93CF93DF93EC017B013B
:101210008A018C85843009F045C0D12C8D2D0E9427
:10122000370E811102C0DC8607C08B7F8831D9F36D
:10123000D39484E0D812F2CF8C85843099F1209138
:101240001001309111012F5F3F4F11F420E030EC7D
:101250003093110120931001409110015091110120
:1012600020E061E00E94890EB7016E5F7F4FA80108
:101270008C850E940F0F811103C084E08C8712C0FF
:10128000CE010E94F708873151F061E070E080E004
:1012900090E00E94D614CE010E94F708ECCF81E0C6
:1012A00090E002C080E090E0DF91CF911F910F911C
:1012B000FF90EF90DF900895CF92DF92EF92FF9230
:1012C000CF93DF93EC018C85843049F10E94670F46
:1012D0000E94A7146B017C01CE010E94F7088823AD
:1012E000A1F061E070E080E090E00E94D6140E94DE
:1012F000A7146C197D098E099F09683E734081050A
:10130000910550F38C850E945F0EEC85F0E0EE0FA6
:10131000FF1FEF5DFD4F1182108284E08C87DF910B
:10132000CF91FF90EF90DF90CF900895CF93DF9310
:10133000EC018C858430D1F0CE010E94F708843115
:10134000A9F0882399F0883189F08C3169F4E8811B
:10135000F9810480F581E02DCE01099521E0892BEA
:1013600009F420E0822F03C081E001C080E0DF911A
:10137000CF9108950F9300E020E040E060E08FE21D
:1013800092E00E943A180F910895CF93DF931F9235
:10139000CDB7DEB76983DC01ED91FC910280F3816A
:1013A000E02D41E050E0BE016F5F7F4F09950F9047
:1013B000DF91CF910895EF92FF920F931F93CF93F8
:1013C000DF93CDB7DEB72D970FB6F894DEBF0FBE13
:1013D000CDBF7C0100E010E0602FCE0101960E949D
:1013E000E508CE0101960E94F708811116C0F701A9
:1013F0004481558120E061E0802F0E94890E802F7A
:101400000E94DD0EF70184819581F801EE0FFF1F28
:10141000EF5DFD4F9183808305C00F5F1F4F043048
:101420001105D1F62D960FB6F894DEBF0FBECDBFD5
:10143000DF91CF911F910F91FF90EF900895FC01E4
:101440001382128281E891E09183808375836483A3
:101450000895BF92CF92DF92EF92FF920F931F9366
:10146000CF93DF93CDB7DEB72D970FB6F894DEBFDD
:101470000FBECDBF8C0141E2C42E42E0D42EB12C70
:10148000E12CF12C6B2DCE0101960E94E508D601CE
:101490002D913D916D01F8018481958128173907BF
:1014A000B1F4CE0101960E94F708843169F0CE01B3
:1014B00001960E94F7088C3151F4CE0101960E94EA
:1014C0002708892B99F003C0EE24E394F12CB39400
:1014D000F4E0BF12D7CFEF2871F4D801ED91FC9161
:1014E0000480F581E02DC801099505C0CE01019663
:1014F0000E945C09ECCF2D960FB6F894DEBF0FBEAC
:10150000CDBFDF91CF911F910F91FF90EF90DF90B2
:10151000CF90BF9008957F928F929F92AF92BF928B
:10152000CF92DF92EF92FF920F931F93CF93DF93AF
:10153000CDB7DEB72D970FB6F894DEBF0FBECDBF87
:101540006C015B014A010E94290A51E2E52E52E03A
:10155000F52E712C00E010E0672DCE0101960E945F
:10156000E508F701219131917F01F6018481958190
:101570002817390731F4CE0101960E94F708873108
:10158000C9F07394F4E07F12E7CFC8012D960FB62F
:10159000F894DEBF0FBECDBFDF91CF911F910F91A9
:1015A000FF90EF90DF90CF90BF90AF909F908F9083
:1015B0007F900895A401B501CE0101960E940D0807
:1015C000080F191FDECFBF92CF92DF92EF92FF92EA
:1015D0000F931F93CF93DF93CDB7DEB72D970FB641
:1015E000F894DEBF0FBECDBF8C016B01CB010E9412
:1015F000290A61E2E62E62E0F62EB12C6B2DCE01B7
:1016000001960E94E508F701219131917F01F601D1
:10161000848195812817390751F5CE0101960E94E2
:10162000F708873111F08C3111F5CE0101960E9437
:101630002708892BE1F08B819C81F80193838283B9
:101640008D819E81AF81B88584839583A683B7837E
:1016500049855A856B857C8540875187628773876A
:101660008DE591E0918380838D85848708C0B39454
:10167000F4E0BF12C3CF64E0C8010E94E508C801CE
:101680002D960FB6F894DEBF0FBECDBFDF91CF9180
:101690001F910F91FF90EF90DF90CF90BF90089532
:1016A0000F9300E020E040E060E085E392E00E94DC
:1016B0003A180F910895DC01ED91FC91008CF18DA9
:1016C000E02D099421EC31E0FC0131832083FB0102
:1016D0004089518962897389FC0142835383648301
:1016E00075830895FC01848995890895FC01818D95
:1016F000928D0895CF93DF931F92CDB7DEB76983A4
:10170000DC01ED91FC910280F381E02D41E050E09D
:10171000BE016F5F7F4F09950F90DF91CF910895C4
:101720000895CF93DF93EC01888D843061F00E949F
:101730005F0EE88DF0E0EE0FFF1FEF5DFD4F1182B1
:10174000108284E0888FDF91CF910895FC01178A81
:10175000168A6E5F7F4F808D0C942611FC01808D60
:101760000C946C11CF93DF93EC019A018E899F89C1
:10177000AB01BC01888D0E94DF102E893F89280FA4
:10178000391F3F8B2E8BDF91CF9108950F931F93BD
:10179000CF93DF931F92CDB7DEB78C01FC01818D13
:1017A000928D892B59F041E050E0BE016F5F7F4F71
:1017B000808D0E942410181619061CF08FEF9FEFE1
:1017C00008C0F801818D928D0197928F818F898158
:1017D00090E00F90DF91CF911F910F910895CF93DB
:1017E000DF93EC01898D9A8D009719F48FEF9FEFAD
:1017F00010C04817590708F0AC01888D0E942410CA
:10180000181619069CF7298D3A8D281B390B3A8F2B
:10181000298FDF91CF910895CF93DF931F92CDB79A
:10182000DEB7FC01218D328D232B49F0BE016F5FA5
:101830007F4F808D0E94AF10898190E002C08FEFB2
:101840009FEF0F90DF91CF910895FF920F931F9319
:10185000CF93DF93EC018B01888D8430E1F4F12C80
:101860008F2D0E94370E811102C0F88E06C088317C
:10187000E1F3F39484E0F812F3CF888D843059F0CB
:101880001D870C871A8E198E20E0A80162E00E9445
:10189000890E81E001C080E0DF91CF911F910F910F
:1018A000FF9008950F931F93CF93DF93CDB7DEB7CB
:1018B00028970FB6F894DEBF0FBECDBF8C01F8019C
:1018C000818D928D892B49F0D801ED91FC91068094
:1018D000F781E02DC8010995F2CF808D0E94841018
:1018E0001816190644F548E050E0BE016F5F7F4FBF
:1018F000D80158968C910E94241018161906ECF401
:10190000BE016F5F7F4FC8010E960E9446188D8101
:1019100090E0982F88272E81820F911DF801958BDA
:10192000848B8F8190E0982F88272885820F911DC6
:10193000928F818F02C080E090E028960FB6F894D5
:10194000DEBF0FBECDBFDF91CF911F910F910895E4
:101950008F929F92AF92BF92CF92DF92EF92FF92BF
:101960000F931F93CF93DF9300D000D000D0CDB75B
:10197000DEB78C017B014A01FC01808D843009F0C7
:1019800063C073E0A72E74E0B72EC12CD12CC50123
:101990000E948212811103C0F801C08E0AC08831F2
:1019A000D9F3FFEFCF1ADF0AB394E4E0CE16D104E7
:1019B00071F7F801808D843009F446C096E0E2E1C9
:1019C000F1E0DE01119601900D929A95E1F7F70191
:1019D00093819F779C8394819D8395819E83B7019A
:1019E0006E5F7F4F90E0982F882744E050E0845F3F
:1019F0009B4F0E945312F801808D90E00496F82EC0
:101A0000EE24692DC70140960E94C911682DC701B7
:101A100041960E94C911F801808D90E0982F882787
:101A200046E050E0BE016F5F7F4F8A5F9B4F0E9490
:101A30005312F801128E118E20E8A40162E0808D0D
:101A40000E94890E81E001C080E026960FB6F894CE
:101A5000DEBF0FBECDBFDF91CF911F910F91FF90E1
:101A6000EF90DF90CF90BF90AF909F908F900895B0
:101A7000CF93DF93EC011B821A8248EE53E060E0C3
:101A800070E04C835D836E837F838BE891E0998364
:101A90008883CE010E960E94301884E0888FDF91F3
:101AA000CF910895CF92DF92EF92FF920F931F9301
:101AB000CF93DF93CDB7DEB7AF970FB6F894DEBF05
:101AC0000FBECDBF7C018B016A01CE0101960E9441
:101AD0003018CE0109960E94380DCE018A960E94D8
:101AE000301869E172E0CE0184960E94B707BE010A
:101AF0006C5D7F4FCE0101960E943003AE01465DC2
:101B00005F4FB801CE0101960E948F05813091058B
:101B1000C1F4D701ED91FC910088F189E02D81ECB1
:101B200091E09DA38CA30CA51DA52EA53FA50EA3FA
:101B30001FA328A739A7A601BE016C5D7F4FC7016F
:101B40000995AF960FB6F894DEBF0FBECDBFDF91FB
:101B5000CF911F910F91FF90EF90DF90CF9008955C
:101B60000F9300E020E040E060E08BE392E00E9411
:101B70003A180F910895CF92DF92EF92FF920F9350
:101B800030E0C12CF2E1DF2EFAE7EF2EF12C4C15FC
:101B90005D056E057F0540F4F694E794D794C794ED
:101BA0003F5F3630A1F737E041E04327211102C003
:101BB00050E701C050E5242F30E03595279523707C
:101BC0000C70202B252BFC012083417041830F9149
:101BD000FF90EF90DF90CF90089590E0982F8827A6
:101BE00044E050E0845F9B4F0C945312282F30E068
:101BF0002C5F3F4F922F8827860F971F0C948212DD
:101C000062E070E00C94F60DFB01282F30E02C5FB1
:101C10003F4F922F8827642F8E0F9F1F0C94C9115E
:101C2000CF93DF93C82FD62F472F64E070E00E9438
:101C3000040E4D2F65E070E08C2FDF91CF910C9456
:101C4000040E462F62E070E00C94040ECF93DF93F5
:101C5000C82FD62F472F60E170E00E94040E4D2F51
:101C600061E170E08C2FDF91CF910C94040E0F9303
:101C70001F93CF93DF9300D01F92CDB7DEB7182FFD
:101C800000E021E040E059E06DE370E0CE01019614
:101C90000E94BB0D89819A810E94220663E070E058
:101CA000812F0E94F60D8B830E943C068B810F9042
:101CB0000F900F90DF91CF911F910F9108950F9387
:101CC0001F93CF93DF9300D0CDB7DEB7182F00E07E
:101CD00021E040E059E06DE370E0CE0101960E9402
:101CE000BB0D89819A810E94220640E150E0612F5C
:101CF00083E492E00E944C146FEF812F0E94210E2A
:101D00000E943C060F900F90DF91CF911F910F9191
:101D10000895CF92DF92EF92FF920F931F93CF938C
:101D2000DF9300D0CDB7DEB7182FD62E7A01C22EA2
:101D30008FEF860F8530A8F5812F0E945F0E00E09F
:101D400021E040E059E06DE370E0CE0101960E9491
:101D5000BB0D89819A810E9422064D2D4C2960E09D
:101D600070E0812F0E94040EE114F10411F0B7011C
:101D70000AC060914102709142026F5F7F4F709381
:101D8000420260934102812F0E94100E41E050E018
:101D9000612F83E492E00E944C140E943C0681E093
:101DA00001C080E00F900F90DF91CF911F910F91B4
:101DB000FF90EF90DF90CF9008950F931F93CF93F4
:101DC000DF9300D0CDB7DEB7182F00E021E040E070
:101DD00059E06DE370E0CE0101960E94BB0D898150
:101DE0009A810E94220663E070E0812F0E94F60D26
:101DF000833121F00E943C0680E00AC042E050E0BE
:101E0000612F83E492E00E944C140E943C0681E022
:101E10000F900F90DF91CF911F910F910895CF9266
:101E2000DF92EF92FF920F931F93CF93DF9300D037
:101E3000CDB7DEB7182F7B016A01FB0180818F3F90
:101E400051F481818F3F99F482818F3F81F48381A6
:101E50008F3F69F430C081110AC0FB01818181117B
:101E600006C08281811103C08381882321F1C114BE
:101E7000D10409F100E021E040E059E06DE370E0B9
:101E8000CE0101960E94BB0D89819A810E94220693
:101E9000B701812F0E94ED0DB601812F0E94260E01
:101EA00044E050E0612F83E492E00E944C140E94D1
:101EB0003C0681E001C080E00F900F90DF91CF9150
:101EC0001F910F91FF90EF90DF90CF9008950F93A7
:101ED0001F93CF93DF9300D0CDB7DEB7182F00E06C
:101EE00021E040E059E06DE370E0CE0101960E94F0
:101EF000BB0D89819A810E94220648E050E0612F43
:101F000083E492E00E944C140E943C060F900F90D4
:101F1000DF91CF911F910F910895BF92CF92DF92E1
:101F2000EF92FF920F931F93CF93DF9300D01F92F6
:101F3000CDB7DEB7B82E6B017A01413088E0580783
:101F400018F0E12C98E0F92E00E021E040E059E0A3
:101F50006DE370E0CE0101960E94BB0D89819A81EC
:101F60000E9422066B2D83E492E00E94BA128C013B
:101F700063E070E08B2D0E94F60D8B830E943C067F
:101F80008B81873111F08C3131F40E945C140E1575
:101F90001F05D0F202C0E12CF12C00E021E040E06E
:101FA00059E06DE370E0CE0101960E94BB0D89817E
:101FB0009A810E9422069701A6016B2D83E492E08C
:101FC0000E94791340E250E06B2D83E492E00E947E
:101FD0004C148B2D0E94000E84FD22C063E070E043
:101FE0008B2D0E94F60D811108C00E943C068B2D9E
:101FF0000E945F0E80E090E01AC00E943C060E94A2
:102000005C1400E021E040E059E06DE370E0CE01B7
:1020100001960E94BB0D89819A810E942206D9CF28
:1020200060E18B2D0E94210E0E943C06C7010F909B
:102030000F900F90DF91CF911F910F91FF90EF9034
:10204000DF90CF90BF900895AF92BF92CF92DF9272
:10205000EF92FF920F931F93CF93DF9300D0CDB7F2
:10206000DEB7182F5B016A0100E021E040E059E093
:102070006DE370E0CE0101960E94BB0D89819A81CB
:102080000E942206612F83E492E00E94EE127C01FE
:102090000097A1F463E070E0812F0E94F60D843177
:1020A00019F1882309F121E030E08C3111F420E0AE
:1020B00030E0EE24FF24E21AF30A16C0C816D9064F
:1020C0000CF476011E141F047CF400E09701A501B6
:1020D000612F83E492E00E94FC1340E450E0612F02
:1020E00083E492E00E944C140E943C06C7010F90CA
:1020F0000F90DF91CF911F910F91FF90EF90DF90A4
:10210000CF90BF90AF9008950F931F93CF93DF931D
:1021100000D000D0CDB7DEB7182F00E021E040E0BE
:1021200059E06DE370E0CE0101960E94BB0D8981FC
:102130009A810E942206612F83E492E00E94EE12AF
:102140008B839C830E943C068B819C810F900F9017
:102150000F900F90DF91CF911F910F910895EF9203
:10216000FF920F931F93CF93DF9300D0CDB7DEB7CD
:10217000182F7B0100E021E040E059E06DE370E0C2
:10218000CE0101960E94BB0D89819A810E94220690
:1021900001E021E030E0A701612F83E492E00E949A
:1021A000FC130E943C0681E090E00F900F90DF91BD
:1021B000CF911F910F91FF90EF90089508959F92F6
:1021C000AF92BF92CF92DF92EF92FF920F931F9345
:1021D000CF93DF9300D0CDB7DEB7982E6B015A01B5
:1021E000790100E021E040E059E06DE370E0CE01CC
:1021F00001960E94BB0D89819A810E942206692D59
:1022000083E492E00E94BA128E159F0530F4692D86
:1022100083E492E00E94BA127C0187019501A60135
:10222000692D83E492E00E940A130E943C06C701D4
:102230000F900F90DF91CF911F910F91FF90EF9032
:10224000DF90CF90BF90AF909F900895CF92DF9294
:10225000EF92FF920F931F93CF93DF9300D0CDB7F0
:10226000DEB7182F7B016A01FB018081811109C053
:102270008181811106C08281811103C083818823FD
:10228000F1F0C114D104D9F000E021E040E059E0C0
:102290006DE370E0CE0101960E94BB0D89819A81A9
:1022A0000E942206B701812F0E94ED0DB601812FF9
:1022B0000E94260E0E943C0681E090E002C080E071
:1022C00090E00F900F90DF91CF911F910F91FF90B1
:1022D000EF90DF90CF9008950F931F93CF93DF93EC
:1022E00000D0CDB7DEB7182F00E021E040E059E084
:1022F0006DE370E0CE0101960E94BB0D89819A8149
:102300000E94220640E250E0612F83E492E00E94A6
:102310004C14812F0E94000E84FD21C0812F0E9449
:10232000000E83FF09C068E1812F0E94210E0E94E8
:102330003C0680E090E01BC00E943C060E945C14BA
:1023400000E021E040E059E06DE370E0CE0101964D
:102350000E94BB0D89819A810E942206DACF60E13A
:10236000812F0E94210E0E943C0681E090E00F9098
:102370000F90DF91CF911F910F9108958EBD0000B6
:102380000DB407FEFDCF8EB508952A9808952A9AB8
:1023900008951F93CF93DF9300D0CDB7DEB7182FEA
:1023A0006A8399830E94C51180EF0E94BE119981B2
:1023B000892F0E94BE11812F0E94BE116A81862F33
:1023C0000E94BE110E94C71181E00F900F90DF9113
:1023D000CF911F910895CF93DF93EC016CE271E0F0
:1023E00080E090E00E94D6140E94EF02229A809131
:1023F0000B02882399F09FB7F89480910B028130EB
:1024000059F48DB3809309022DB380910A0280950F
:1024100082238DBB9FBF02C09093090280E58CBDD3
:102420001DBC60E880E090E00E94C91165E58BE189
:1024300090E00E94C91165E58AE190E00E94C9110F
:1024400080910B02882361F09FB7F89420910B02D2
:1024500080910902213019F48DBB9FBF01C08FBF4D
:1024600080E090E49983888380E090E6998788876C
:1024700080E098E49B838A8380E098E69B878A8744
:1024800080E090E59D838C8380E090E79D878C873A
:1024900080E098E59F838E8380E098E79F878E8712
:1024A000DF91CF910895CF92DF92EF92FF920F9339
:1024B0001F93CF93DF93EC017A018B016C01C40E63
:1024C000D51ECC15DD05A1F00E94C51180EF0E943C
:1024D000BE118D2F0E94BE118C2F0E94BE1121961D
:1024E000F80181918F010E94BE110E94C711E9CFAE
:1024F000C701DF91CF911F910F91FF90EF90DF9077
:10250000CF9008951F93CF93DF931F92CDB7DEB77F
:10251000182F99830E94C5118FE00E94BE119981E6
:10252000892F0E94BE11812F0E94BE1180E00E945F
:10253000BE1189830E94C71189810F90DF91CF91CD
:102540001F9108951F93CF93DF93182F60E270E0DF
:102550000E94F60DC82FD0E061E270E0812F0E944A
:10256000F60DDC2FCC279E01282BC901DF91CF91DE
:102570001F910895FF920F931F93CF93DF93F62E31
:10258000C0E0D0E08F2D0E94A2128C01009721F0B4
:102590008F2D0E94A212EC01C017D10799F7CE012E
:1025A000DF91CF911F910F91FF9008951F93CF93CB
:1025B000DF93182F66E270E00E94F60DC82FD0E07E
:1025C00067E270E0812F0E94F60DDC2FCC279E0180
:1025D000282BC901DF91CF911F910895FF920F938E
:1025E0001F93CF93DF93F62EC0E0D0E08F2D0E9493
:1025F000D6128C01009721F08F2D0E94D612EC018B
:10260000C017D10799F7CE01DF91CF911F910F919C
:10261000FF9008956F927F929F92AF92BF92CF9258
:10262000DF92EF92FF920F931F93CF93DF931F924E
:10263000CDB7DEB7D82E962E3A01590164E270E08C
:10264000892D99830E94F60DE82EF12C65E270E049
:10265000892D0E94F60DFE2CEE24E82AE60CF71CCC
:10266000970137706D2C9981792E690C711C690C5A
:10267000711CD301ED91FC91E20FF31FC901800F92
:10268000911F81309840A0F0C12C48E0D42EC21A8E
:10269000D30AA601B501CF010E945312A8014C191B
:1026A0005D09B5016C0D7D1DF3018081918103C031
:1026B000A801B501CF010E945312E00EF11E4F2D6B
:1026C00064E270E0892D0E94040E4E2D65E270E0F8
:1026D000892D0F90DF91CF911F910F91FF90EF9077
:1026E000DF90CF90BF90AF909F907F906F900C94B1
:1026F000040E0F931F9389019A0140E050E00E945D
:102700000A131F910F910895CF92DF92EF92FF92DB
:102710000F931F93CF93DF93EC017A018B016C0130
:10272000C40ED51ECC15DD05A9F00E94C5118FE0A1
:102730000E94BE118D2F0E94BE118C2F0E94BE11CF
:10274000219680E00E94BE11F80181938F010E94C2
:10275000C711E8CFC701DF91CF911F910F91FF9073
:10276000EF90DF90CF900895AF92BF92CF92DF921B
:10277000EF92FF920F931F93CF93DF9300D0CDB7CB
:10278000DEB75A8349835901E981FA81F7707C01E8
:10279000E60EF11CE60EF11CD70118968D919C9166
:1027A00019978E0F9F1F98012E0F3F1F2130384021
:1027B00098F0C12C68E0D62ECE1ADF0AA601B5012A
:1027C0000E948413A8014C195D09B5016C0D7D1D93
:1027D000F7018085918502C0A801B5010F900F9087
:1027E000DF91CF911F910F91FF90EF90DF90CF90ED
:1027F000BF90AF900C9484138F929F92AF92BF9230
:10280000CF92DF92EF92FF920F931F93CF93DF93BC
:102810006C01962E5A017901802E68E270E0892DB4
:102820000E94F60DC82FD0E069E270E0892D0E9469
:10283000F60DDC2FCC27C82B87019501AE01692D41
:10284000C6010E94B41381101AC0CE0DDF1D4D2F9A
:1028500068E270E0892D0E94040E4C2F69E270E05E
:10286000892DDF91CF911F910F91FF90EF90DF9015
:10287000CF90BF90AF909F908F900C94040EDF91FB
:10288000CF911F910F91FF90EF90DF90CF90BF906D
:10289000AF909F908F900895CF93C62F61E070E026
:1028A0008C2F0E94040E61E070E08C2F0E94F60DC8
:1028B0008111F9CFCF91089508951F920F920FB60D
:1028C0000F9211242F933F938F939F93AF93BF93B6
:1028D0008091540290915502A0915602B0915702F6
:1028E0003091530223E0230F2D3720F40196A11DD0
:1028F000B11D05C026E8230F0296A11DB11D20932E
:1029000053028093540290935502A0935602B093C1
:1029100057028091580290915902A0915A02B091A9
:102920005B020196A11DB11D80935802909359023C
:10293000A0935A02B0935B02BF91AF919F918F9188
:102940003F912F910F900FBE0F901F9018952FB7AA
:10295000F8946091540270915502809156029091C2
:1029600057022FBF08953FB7F89480915802909175
:102970005902A0915A02B0915B0226B5A89B05C0EE
:102980002F3F19F00196A11DB11D3FBF6627782F7B
:10299000892F9A2F620F711D811D911D42E0660FD4
:1029A000771F881F991F4A95D1F708958F929F929C
:1029B000AF92BF92CF92DF92EF92FF926B017C01B8
:1029C0000E94B3144B015C01C114D104E104F10471
:1029D000F1F00E945C140E94B314681979098A0905
:1029E0009B09683E73408105910570F321E0C21A8E
:1029F000D108E108F10888EE880E83E0981EA11C3A
:102A0000B11CC114D104E104F10429F7DDCFFF901A
:102A1000EF90DF90CF90BF90AF909F908F900895F0
:102A2000789484B5826084BD84B5816084BD85B5A9
:102A3000826085BD85B5816085BDEEE6F0E0808170
:102A400081608083E1E8F0E0108280818260808391
:102A5000808181608083E0E8F0E080818160808314
:102A6000E1EBF0E0808184608083E0EBF0E0808146
:102A700081608083EAE7F0E08081846080838081E8
:102A80008260808380818160808380818068808390
:102A90001092C1000895833081F028F4813099F0BC
:102AA0008230A1F008958730A9F08830B9F08430E1
:102AB000D1F4809180008F7D03C0809180008F775A
:102AC00080938000089584B58F7702C084B58F7D90
:102AD00084BD08958091B0008F7703C08091B000CD
:102AE0008F7D8093B0000895CF93DF9390E0FC0139
:102AF000E458FF4F2491FC01E057FF4F8491882355
:102B000049F190E0880F991FFC01E854FF4FA5910F
:102B1000B49182559F4FFC01C591D4919FB761112B
:102B200008C0F8948C91209582238C93888182230D
:102B30000AC0623051F4F8948C91322F309583237F
:102B40008C938881822B888304C0F8948C91822B8B
:102B50008C939FBFDF91CF9108950F931F93CF93D5
:102B6000DF931F92CDB7DEB7282F30E0F901E85987
:102B7000FF4F8491F901E458FF4F1491F901E05798
:102B8000FF4F04910023C9F0882321F069830E943C
:102B90004B156981E02FF0E0EE0FFF1FE255FF4F6C
:102BA000A591B4919FB7F8948C91611103C01095D1
:102BB000812301C0812B8C939FBF0F90DF91CF9118
:102BC0001F910F910895CF93DF93282F30E0F901E3
:102BD000E859FF4F8491F901E458FF4FD491F9016E
:102BE000E057FF4FC491CC2391F081110E944B1507
:102BF000EC2FF0E0EE0FFF1FEC55FF4FA591B491C5
:102C00002C912D2381E090E021F480E002C080E04F
:102C100090E0DF91CF910895FC01818D228D90E0AD
:102C2000805C9F4F821B91098F7399270895FC0147
:102C3000918D828D981731F0828DE80FF11D858D71
:102C400090E008958FEF9FEF0895FC01918D828DA4
:102C5000981761F0828DDF01A80FB11D5D968C91F0
:102C6000928D9F5F9F73928F90E008958FEF9FEFFB
:102C7000089589EA97E1892B49F080E090E0892B5B
:102C800029F00E94A91781110C9400000895FC01FD
:102C9000848DDF01A80FB11DA35ABF4F2C91848DE5
:102CA00090E001968F739927848FA689B7892C931A
:102CB000A089B1898C9180648C93938D848D9813B5
:102CC00006C00288F389E02D80818F7D808308957E
:102CD000CF93DF93EC01888D8823C9F0EA89FB89C3
:102CE000808185FD05C0A889B9898C9186FD0FC0BA
:102CF0000FB607FCF5CF808185FFF2CFA889B9898F
:102D00008C9185FFEDCFCE010E944716E7CFDF9172
:102D1000CF910895CF92DF92FF920F931F93CF939D
:102D2000DF931F92CDB7DEB76C0181E0D6015896D4
:102D30008C9358975B969C915B975C968C915C9773
:102D4000981307C05096ED91FC915197808185FDB5
:102D50002EC0F601038D10E00F5F1F4F0F73112778
:102D6000F02EF601848DF81211C00FB607FCF9CFD2
:102D7000D6015096ED91FC915197808185FFF1CF5E
:102D8000C60169830E9447166981EBCF838DE80FE6
:102D9000F11DE35AFF4F6083D6015B960C935B975E
:102DA0005296ED91FC915397808180620CC0D601C0
:102DB0005696ED91FC91579760835096ED91FC915A
:102DC000519780818064808381E090E00F90DF9153
:102DD000CF911F910F91FF90DF90CF900895BF92F8
:102DE000CF92DF92EF92FF92CF93DF93EC016A01D3
:102DF0007B01B22EE889F98982E08083411581EE5A
:102E0000580761057105A1F060E079E08DE390E07D
:102E1000A70196010E945C1A21503109410951090C
:102E20005695479537952795211580E1380798F0F5
:102E3000E889F989108260E874E88EE190E0A701E2
:102E400096010E945C1A2150310941095109569599
:102E5000479537952795EC85FD853083EE85FF8571
:102E60002083188EEC89FD89B082EA89FB898081F4
:102E700080618083EA89FB89808188608083EA8918
:102E8000FB89808180688083EA89FB8980818F7DCE
:102E90008083DF91CF91FF90EF90DF90CF90BF9034
:102EA00008951F920F920FB60F9211242F938F93B4
:102EB0009F93EF93FF93E0916C02F0916D028081FC
:102EC000E0917202F091730282FD12C090818091B4
:102ED00075028F5F8F7320917602821751F0E09117
:102EE0007502F0E0E45AFD4F958F8093750201C0A2
:102EF0008081FF91EF919F918F912F910F900FBE45
:102F00000F901F9018951F920F920FB60F921124D9
:102F10002F933F934F935F936F937F938F939F93E1
:102F2000AF93BF93EF93FF938CE592E00E94471617
:102F3000FF91EF91BF91AF919F918F917F916F9191
:102F40005F914F913F912F910F900FBE0F901F9067
:102F500018958CE592E00E940C1621E0892B09F46B
:102F600020E0822F089510925F0210925E0288EE98
:102F700093E0A0E0B0E08093600290936102A093A0
:102F80006202B093630281EB91E090935D028093C3
:102F90005C0285EC90E0909369028093680284EC77
:102FA00090E090936B0280936A0280EC90E09093A3
:102FB0006D0280936C0281EC90E090936F0280939D
:102FC0006E0282EC90E0909371028093700286EC26
:102FD00090E09093730280937202109275021092A7
:102FE000760210927702109278020895AF92BF9203
:102FF000CF92DF92EF92FF920F931F93CF93DF93C5
:103000006C017B01C0E0D0E000E010E0F601EC0FC5
:10301000FD1F4AE050E06281C7010E9447195C0130
:103020006EE2C7010E94BC188A0D9B1D080F191F74
:103030002196C330D10551F74AE050E0F601658191
:10304000C7010E944719800F911FDF91CF911F91F7
:103050000F91FF90EF90DF90CF90BF90AF900895C9
:1030600021EC31E0FC01318320831282138214822F
:10307000158208950F93FC0181EC91E09183808388
:1030800062834383248305830F910895FB0140816C
:10309000518162817381FC01428353836483758310
:1030A000089581EC91E09093FA028093F9021092D6
:1030B000FB021092FC021092FD021092FE02089593
:1030C00008950E9410150E9460180E94DC00C9E358
:1030D000D6E10E94A0012097E1F30E943916F9CFB2
:1030E000CF92DF92EF92FF920F931F93CF93DF93D4
:1030F0007C016A01EB0100E010E00C151D0571F088
:103100006991D701ED91FC910190F081E02DC7010B
:103110000995892B19F00F5F1F4FEFCFC801DF9181
:10312000CF911F910F91FF90EF90DF90CF90089576
:103130006115710581F0DB010D900020E9F7AD010B
:1031400041505109461B570BDC01ED91FC91028067
:10315000F381E02D099480E090E00895DC01ED9189
:10316000FC91DB0114964D915C9115976D917C91CA
:103170000280F381E02D0994DC01ED91FC91019036
:10318000F081E02D099463EC71E00C9498180F9392
:103190001F93CF93DF93EC010E94AE188C01CE01F8
:1031A0000E94C318800F911FDF91CF911F910F9143
:1031B00008950F931F93CF93DF93EC010E9498180B
:1031C0008C01CE010E94C318800F911FDF91CF9117
:1031D0001F910F9108958F929F92AF92BF92DF92AD
:1031E000EF92FF920F931F93CF93DF93CDB7DEB78C
:1031F000A1970FB6F894DEBF0FBECDBF7C01F42FB0
:10320000D52ECB0119A2223008F42AE08E010F5DE1
:103210001F4F822E912CA12CB12C6F2F7D2DA5013B
:1032200094010E945C1AF22FD32ECA010150110999
:103230006A3014F4E0E301C0E7E3E60FD801EC9351
:10324000232B242B252B49F7B801C7010E9498187E
:10325000A1960FB6F894DEBF0FBECDBFDF91CF9120
:103260001F910F91FF90EF90DF90BF90AF909F90D4
:103270008F9008952115310541F4DC01ED91FC9109
:103280000190F081E02D642F09940C94EB189A01C1
:10329000462F50E060E070E00C943A1970E09B011A
:1032A000382BC9010895FC01808191810C941C1B6D
:1032B000CF93DF93EC0188819981009711F00E94F0
:1032C0001C1B198218821D821C821B821A82DF91AC
:1032D000CF9108950F931F93CF93DF93EC018B0150
:1032E0006F5F7F4F888199810E94AB1B009731F0FF
:1032F000998388831B830A8381E001C080E0DF918A
:10330000CF911F910F910895CF93DF93EC018881A6
:103310009981892B29F08A819B818617970760F410
:10332000CE010E946A19882341F08C819D81892BEE
:1033300019F4E881F981108281E0DF91CF9108953D
:10334000EF92FF920F931F93CF93DF93EC017B01DA
:103350008A01BA010E948419811104C0CE010E9421
:10336000581907C01D830C83B701888199810E9479
:10337000871CCE01DF91CF911F910F91FF90EF90AD
:103380000895FC0111821082138212821582148228
:103390006115710559F0FB0101900020E9F7AF01BB
:1033A00041505109461B570B0C94A0190895CF9317
:1033B000DF93EC01FB018617970761F06081718153
:1033C0006115710529F0448155810E94A01902C040
:1033D0000E945819CE01DF91CF910895FC0111820E
:1033E000108213821282158214820C94D719EF92E4
:1033F000FF920F931F93CF93DF93EC017B010C811E
:103400001D816115710511F480E016C0411551054B
:1034100091F0040F151FB8010E9484198823A1F3AD
:10342000288139818C819D81B701820F931F0E9471
:10343000871C1D830C8381E0DF91CF911F910F9139
:10344000FF90EF900895CF93DF93EC016115710524
:1034500069F0FB0101900020E9F7AF0141505109EB
:10346000461B570B0E94F719811103C0CE010E9421
:103470005819CE01DF91CF910895FC012481358147
:10348000232B31F421E061157105A1F0FB0108C087
:10349000FC01808191816115710531F421E0FC010D
:1034A0008081882339F005C00E947E1C21E0892B91
:1034B00009F020E0822F0895A1E21A2EAA1BBB1B5F
:1034C000FD010DC0AA1FBB1FEE1FFF1FA217B307F0
:1034D000E407F50720F0A21BB30BE40BF50B661F06
:1034E000771F881F991F1A9469F7609570958095CA
:1034F00090959B01AC01BD01CF010895EE0FFF1F18
:103500000590F491E02D0994CF93DF9382309105DB
:1035100010F482E090E0E0910103F091020320E0DA
:1035200030E0A0E0B0E0309739F140815181481798
:103530005907B8F04817590771F4828193811097A1
:1035400029F013969C938E9312972CC090930203AC
:103550008093010327C02115310531F0421753072D
:1035600018F0A901DB0101C0EF019A01BD01DF01E3
:103570000280F381E02DD7CF21153105F9F0281B0A
:10358000390B2430310580F48A819B8161157105E6
:1035900021F0FB019383828304C090930203809304
:1035A0000103FE01329644C0FE01E20FF31F819336
:1035B000919322503109398328833AC02091FF0228
:1035C00030910003232B41F420910201309103013B
:1035D000309300032093FF022091000130910101FC
:1035E0002115310541F42DB73EB7409104015091AA
:1035F0000501241B350BE091FF02F0910003E21757
:10360000F307A0F42E1B3F0B2817390778F0AC0105
:103610004E5F5F4F2417350748F04E0F5F1F5093E2
:1036200000034093FF028193919302C0E0E0F0E039
:10363000CF01DF91CF910895CF93DF93009709F4E5
:1036400087C0FC01329713821282C0910103D0918E
:103650000203209781F420813181280F391F809146
:10366000FF02909100038217930779F5F09300030E
:10367000E093FF026DC0DE0120E030E0AE17BF072F
:1036800050F412964D915C9113979D01411551058F
:1036900009F1DA01F3CFB383A28340815181840F12
:1036A000951F8A179B0771F48D919C911197840F38
:1036B000951F02969183808312968D919C9113970A
:1036C000938382832115310529F4F0930203E0935B
:1036D00001033EC0D9011396FC93EE9312974D91CE
:1036E0005D91A40FB51FEA17FB0779F480819181E2
:1036F000840F951F0296D90111969C938E93828117
:10370000938113969C938E931297E0E0F0E08A8168
:103710009B81009719F0FE01EC01F9CFCE010296D2
:1037200028813981820F931F2091FF02309100037D
:103730002817390769F4309729F410920203109280
:10374000010302C013821282D0930003C093FF02D0
:10375000DF91CF910895A0E0B0E0E1EBFBE10C94A4
:10376000921CEC01CB01209719F40E94841AB8C076
:10377000FE01E60FF71F9E0122503109E217F30701
:1037800008F4ACC0D9010D911C91119706171707C9
:10379000B8F00530110508F49FC0A8014450510944
:1037A0004617570708F498C002501109061B170B5B
:1037B000019311936D937C93CF010E941C1B8CC0CD
:1037C0005B01A01AB10A4E01800E911EA091010367
:1037D000B0910203612C712C60E070E0109709F445
:1037E00049C0A815B905C9F5ED90FC90119767017E
:1037F00042E0C40ED11CCA14DB0478F147018A18D8
:103800009B08640142E0C40ED11C1296BC90129732
:103810001396AC91B5E0CB16D10440F0B282A383ED
:1038200091828082D9018D939C9309C00E5F1F4FB6
:103830000E0D1F1DF90111830083EB2DFA2F611569
:10384000710531F0DB011396FC93EE93129744C09F
:10385000F0930203E09301033FC06D917C911197B7
:103860006616770608F43B01BD0112960D90BC91D7
:10387000A02DB4CF6091FF02709100036815790507
:10388000E9F468167906D0F44091000150910101E5
:103890004115510541F44DB75EB760910401709137
:1038A0000501461B570BE417F507C0F4F09300031E
:1038B000E093FF02F901918380830EC00E94841A75
:1038C0007C01009759F0A801BE010E94751CCE0131
:1038D0000E941C1BC70104C0CE0102C080E090E022
:1038E000CDB7DEB7EEE00C94AE1CFB01DC0102C0EC
:1038F00001900D9241505040D8F70895FB01DC0132
:103900008D91019080190110D9F3990B0895FB0155
:10391000DC0101900D920020E1F708952F923F9273
:103920004F925F926F927F928F929F92AF92BF92CF
:10393000CF92DF92EF92FF920F931F93CF93DF937B
:10394000CDB7DEB7CA1BDB0B0FB6F894DEBF0FBED8
:10395000CDBF09942A88398848885F846E847D8425
:103960008C849B84AA84B984C884DF80EE80FD8027
:103970000C811B81AA81B981CE0FD11D0FB6F8949D
:0E398000DEBF0FBECDBFED010895F894FFCF5E
:10398E0000000303800001000000DEADBEEFFEED7F
:10399E0000C001005E0000002D3100636F6E6E6589
:1039AE006374656400636F6E6E656374696F6E2019
:1039BE006661696C65640043505330004350533167
:1039CE0000496E636F6D696E6720636C69656E7416
:1039DE002100524649443A200000000000E4070D41
:1039EE0008270830084E087108FF0875084A085C59
:1039FE00099609FA07D507D8070208DA070000006A
:103A0E0000C5098B0ADB09000000007A0BB20B76A9
:103A1E000BC60B0C0C900B250C910BA60B520DAE7E
:103A2E000B520CEF0B5B0B620B720BA80C00000021
:103A3E00008A1670180C1625161716681600000048
:103A4E0000F6170D0A006E616E00696E66006F76E5
:043A5E0066002E00D0
:00000001FF
