:100000000C9465000C948D000C948D000C948D0064
:100010000C948D000C948D000C948D000C948D002C
:100020000C948D000C948D000C948D000C948D001C
:100030000C948D000C948D000C948D000C948D000C
:100040000C944D130C948D000C9418160C944A16B5
:100050000C948D000C948D000C948D000C948D00EC
:100060000C948D000C948D0000000008000201002B
:100070000003040700000000000000000102040863
:100080001020408001020408102001020408102002
:10009000040404040404040402020202020203032E
:1000A0000303030300000000250028002B000000CC
:1000B0000000240027002A00CF0015026002B706C6
:1000C000AA08400AA00C7A16181711241FBECFEFF9
:1000D000D8E0DEBFCDBF11E0A0E0B1E0EAE5F6E395
:1000E00002C005900D92A63BB107D9F722E0A6EB1E
:1000F000B1E001C01D92A33EB207E1F710E0CAECE7
:10010000D0E004C02297FE010E94EF18C83BD1073F
:10011000C9F70E9428170C942B1B0C940000CF9356
:10012000DF9300D000D000D0CDB7DEB783EA91E0F6
:100130009A8389838091DF019091E001A091E10190
:10014000B091E2018B839C83AD83BE83AE014F5F90
:100150005F4F6AE071E089EF91E00E94690626E056
:1001600040E659E060E070E08CE392E00E94B61552
:1001700068EE73E080E090E00E94C61361E082E0E8
:100180000E94641460E082E00E949D1426960FB6DF
:10019000F894DEBF0FBECDBFDF91CF9108950F93CE
:1001A00000E020E040E060E083EE91E00E94011773
:1001B00001EB21E048EA60EC8DED91E00E9401172F
:1001C00004E621E048EA60EC87ED91E00E94011727
:1001D0008AEC91E00E94C3076FED7BE384EC91E031
:1001E0000F910C940F090F931F93CF93DF9300D0BF
:1001F00000D000D0CDB7DEB78C0164E670E080E0BF
:1002000090E00E94C61383EA91E09A83898340912B
:10021000D9015091DA016091DB017091DC014B83CF
:100220005C836D837E834EED5BE3BE016F5F7F4F2A
:100230008AEC91E00E94EF07892BF9F068E171E008
:100240008CE392E00E948E1762E271E0CE0101968B
:100250000E947618B801CE0101960E94B818BC0120
:100260008AEC91E00E947517CE0101960E94081851
:100270008AEC91E00E944C0806C069E271E08CE3D0
:1002800092E00E948E1726960FB6F894DEBF0FBE3E
:10029000CDBFDF91CF911F910F910895CF93DF9341
:1002A000CDB7DEB763970FB6F894DEBF0FBECDBFF4
:1002B00064EC71E0CE0101960E94D3098AEC91E0D2
:1002C0000E94EA068CE392E00E94D31418161906E5
:1002D0000CF06CC08CE392E00E94EC149093C3018C
:1002E0008093C2010A9709F061C01092B701109281
:1002F000B6018091B6019091B7010A9794F48CE30E
:1003000092E00E94D314181619069CF78CE392E031
:100310000E94EC149093C3018093C2018A3091052E
:10032000A9F48091B6019091B7010A9709F568EB9D
:1003300071E0CE010E960E947618CE010E960E94B4
:10034000F300CE010E960E94081812C08D30910560
:1003500041F32091B6013091B701F901E854FE4F05
:1003600080832F5F3F4F3093B7012093B601C1CFF9
:100370008CE392E00E94D314181619062CF48CE337
:1003800092E00E94EC14F4CF1092B7011092B601E3
:1003900061E082E00E949D1468E873E180E090E0F3
:1003A0000E94C61360E082E00E949D1463960FB61F
:1003B000F894DEBF0FBECDBFDF91CF910895CF93EC
:1003C000CFB7F8948091EC01811127C0EAE9F0E001
:1003D0008491E6E8F0E09491E82FF0E0EE0FFF1F43
:1003E000E255FF4FA591B4918C91892321F461E0EE
:1003F0008AE00E949D1461E08AE00E9464148CB53A
:1004000080618CBD8CB580648CBD61E08DE00E9404
:10041000641461E08BE00E9464148091EC018F5FB2
:100420008093EC01CFBFCF9108950F9300E020E0BF
:1004300040E060E08DEE91E00E9401170F91089579
:10044000FB014281538164817581FC0142835383A6
:1004500064837583178216820895FB0120E080E093
:1004600090E06AE03191332309F170ED730F7A3037
:1004700080F4DC016A9FC0016B9F900D1124C0972E
:10048000830F911D37FD9A958F3F910559F350F3D6
:1004900014C03E3291F4233081F0DA01A20FB11D75
:1004A00012968C932F5F80E090E0DCCF233029F40C
:1004B000FA01858381E090E0089580E090E008955E
:1004C0000F9300E020E040E060E083EF91E00E94C5
:1004D00001170F910895AF92BF92CF92DF92EF92E2
:1004E000FF920F931F93CF93DF9300D000D01F9202
:1004F000CDB7DEB78C017B010E949713F80177839B
:1005000066837627672776277A836983085F1F4F7C
:1005100042E050E0BE016F5F7F4FC8010E94A20A17
:1005200081E090E09C838B8342E050E0BE016D5FF0
:100530007F4FC8010E94A20A80E091E09C838B83D8
:1005400042E050E0BE016D5F7F4FC8010E94A20AE9
:100550001C821B8242E050E0BE016D5F7F4FC801EC
:100560000E94A20A42E050E0BE016D5F7F4FC801C9
:100570000E94A20A42E050E0BE016D5F7F4FC801B9
:100580000E94A20A6701F6018081882311F1F70118
:100590006F018191811115C05601AE18BF081A1460
:1005A0001B0494F4AD8241E050E0BE016B5F7F4FCD
:1005B000C8010E94A20AA501B701C8010E94A20AAF
:1005C00003C08E3229F7E8CF7601FFEFEF1AFF0A5A
:1005D000DACF1D8241E050E0BE016B5F7F4FC80162
:1005E0000E94A20AE12CFF24F394FC82EB8242E0F9
:1005F00050E0BE016D5F7F4FC8010E94A20AFC82DD
:10060000EB8242E050E0BE016D5F7F4FC8010E9467
:10061000A20A81E090E00F900F900F900F900F9042
:10062000DF91CF911F910F91FF90EF90DF90CF90CE
:10063000BF90AF9008954F925F926F927F928F928A
:100640009F92AF92BF92CF92DF92EF92FF920F9361
:100650001F93CF93DF93CDB7DEB763970FB6F894B0
:10066000DEBF0FBECDBF7C015B016A010E94971304
:100670002B013C018701085F1F4F4501A12CB12CC4
:10068000C8010E94420B1816190694F00E94971395
:10069000641975098609970986169706A806B9068A
:1006A000D0F062E370E080E090E00E94C613E8CFF3
:1006B000F7014281538164817581808D918DA28D76
:1006C000B38D481759076A077B0741F4848D958DD0
:1006D000C59721F406C08FEF9FEFFAC08EEF9FEF12
:1006E000F7C0C8010E94660A0C97ECF04CE050E09D
:1006F000BE016F5F7F4FC8010E94DF0A6C818B8152
:100700000E9403189A8B898BF701E680F7806A8133
:1007100089810E940318E816F90641F489899A89AB
:1007200097FF04C009C08DEF9FEFD2C0C8010E949F
:10073000800A8CEF9FEFCCC08F709270892B31F0C4
:10074000C8010E94800A8BEF9FEFC2C068858F812D
:100750000E9403185C01009719F0E12CF12C23C0D2
:10076000C8010E94800A8AEF9FEFB2C041E050E0CA
:10077000BE01635F7F4FC8010E94DF0A8D85811132
:100780001AC08D858111F2CFC8010E94B60AC80136
:100790000E94B60AC8010E94B60AC8010E94B60AA1
:1007A000FFEFEF1AFF0A6E818D810E940318E81691
:1007B000F906E0F20AC08D859FEF980F9D87882388
:1007C00001F3C8010E94B60AF6CFE12CF12C41E0FA
:1007D00050E0BE016D5E7F4FC8010E94DF0A8B8929
:1007E000982F907C61F4882371F08B899FEF980F8C
:1007F0009B8B882341F0C8010E94B60AF6CFC8013E
:100800000E94B60A1B8A8B898111E1CF42E050E039
:10081000BE01615F7F4FC8010E94DF0A42E050E0E5
:10082000BE01635F7F4FC8010E94DF0AC8010E94BA
:10083000B60AC8010E94B60AC8010E94B60AC801D9
:100840000E94B60A42E050E0BE016F5E7F4FC801D1
:100850000E94DF0A8F8598898115914029F48D8542
:100860009E858115914019F0812C912C16C08989A3
:100870009A898115944031F0C8010E94800A87EF5F
:100880009FEF26C0B6016E5F7F4F44E050E0C80185
:100890000E94DF0A81E090E01BC089899A8998272D
:1008A000892798278816990638F4C8010E94B60A45
:1008B0002FEF821A920AF1CF8FEFE81AF80AEA14A2
:1008C000FB0409F084CFC8010E94800A86EF9FEFE5
:1008D00063960FB6F894DEBF0FBECDBFDF91CF9108
:1008E0001F910F91FF90EF90DF90CF90BF90AF904E
:1008F0009F908F907F906F905F904F9008958F9210
:100900009F92AF92BF92CF92DF92EF92FF920F939E
:100910001F93CF93DF9300D000D000D0CDB7DEB7C8
:100920008C015B016A010E942D024C01009709F0C5
:100930005DC0F80142815381648175818091F50128
:100940009091F601A091F701B091F801481759076D
:100950006A077B0709F44EC00E9497137801F8E0FC
:10096000EF0EF11C6F7077277C5FC7010E94150B9B
:10097000813009F043C083EA91E09A838983F801CA
:1009800082819381A481B5818B839C83AD83BE8357
:1009900045E350E0BE016F5F7F4FC7010E94960A9A
:1009A000892B19F4812C912C1DC0B501C8010E941E
:1009B0006B02892BB9F3C7010E949E0A892B91F320
:1009C00033E0A32EB12CA60168E873E1C8010E94B0
:1009D0001B034C01F1E0AF1AB10821F08F3F2FEF5C
:1009E000920789F3C7010E94810A08C08824839472
:1009F000912C04C09EEF892E99249A94C4012696C6
:100A00000FB6F894DEBF0FBECDBFDF91CF911F911F
:100A10000F91FF90EF90DF90CF90BF90AF909F909D
:100A20008F9008952091EB01222399F03FB7F8941D
:100A30002091EB01213059F42DB32093E9014DB3FE
:100A40002091EA01209524232DBB3FBF02C03093A3
:100A5000E9018CBD9DBD08958091EB01882361F073
:100A60009FB7F8942091EB018091E901213019F4AE
:100A70008DBB9FBF08958FBF089544E050E0BC0137
:100A800081E090E00C94431144E050E0BC0185E02B
:100A900090E00C94431144E050E0BC018FE090E002
:100AA0000C9443118F929F92AF92BF92CF92DF929C
:100AB000EF92FF920F931F93CF93DF9300D0CDB7A8
:100AC000DEB74C016A01590183E292E069837A83BF
:100AD0000E94DB1080E590E00E94120546E050E0A5
:100AE00069817A8189E090E00E944311C6010296F3
:100AF0000E944B05C80102960E943D05C70102965F
:100B00000E9444050E942C05F501428153816481B5
:100B10007581F40142835383648375830F900F9032
:100B2000DF91CF911F910F91FF90EF90DF90CF90C9
:100B3000BF90AF909F908F9008956F927F928F9209
:100B40009F92AF92BF92CF92DF92EF92FF920F935C
:100B50001F93CF93DF93CDB7DEB76E970FB6F894A0
:100B6000DEBF0FBECDBF6C015B017A0149013801C8
:100B700000E02FEF4FEF6FEFCE0149960E94011773
:100B800023EA31E03A8329838B8D9C8DAD8DBE8D18
:100B90008B839C83AD83BE8338872F83F30182814F
:100BA0009381A481B58189879A87AB87BC873E876B
:100BB0002D87F40182819381A481B5818F87988BE1
:100BC000A98BBA8B3C8B2B8BF701428153816481BB
:100BD00075814D8B5E8B6F8B788FCE0101967C017A
:100BE0008E01095F1F4F9E01235F3F4FAE014D5E97
:100BF0005F4FB501C6010E9452056E960FB6F8947C
:100C0000DEBF0FBECDBFDF91CF911F910F91FF903F
:100C1000EF90DF90CF90BF90AF909F908F907F909C
:100C20006F900895CF92DF92EF92FF920F931F93F0
:100C3000CF93DF93CDB7DEB768970FB6F894DEBFDA
:100C40000FBECDBF6B017901DA0112964D915D9116
:100C50006D917C9115974D8B5E8B6F8B788FA3EA8E
:100C6000B1E0BA83A98321E0288F0D891E892F89DD
:100C7000388D0B831C832D833E83B887AF83F701A8
:100C8000028113812481358109871A872B873C874C
:100C9000BE87AD874F87588B698B7A8B8E010F5F2C
:100CA0001F4F9E01295F3F4FAE01435F5F4FB6016B
:100CB0000E949D0568960FB6F894DEBF0FBECDBFAB
:100CC000DF91CF911F910F91FF90EF90DF90CF9028
:100CD00008950F931F93CF93DF93CDB7DEB762973D
:100CE0000FB6F894DEBF0FBECDBFDB01FA01428123
:100CF0005381648175814F87588B698B7A8BE3EAC6
:100D0000F1E0FA83E98321E02A8B0F85188929898C
:100D10003A890B831C832D833E83F887EF834987B1
:100D20005A876B877C879E012F5F3F4FAE01495FDB
:100D30005F4FBD010E94120662960FB6F894DEBFA7
:100D40000FBECDBFDF91CF911F910F91089523EA80
:100D500031E0FC0131832083FB01428153816481B6
:100D60007581FC01428353836483758308950F93D7
:100D700000E020E040E060E089E092E00E9401179E
:100D800089EF91E00F910C94F71681E08627089582
:100D9000862F0895DC01ED91FC91048CF58DE02DFA
:100DA000099591E089270895CF93DF931F92CDB7DE
:100DB000DEB76983DC01ED91FC910280F381E02DC7
:100DC00041E050E0BE016F5F7F4F09950F90DF91CA
:100DD000CF91089521E0FC018485843009F420E05E
:100DE000822F0895FC019485FB018485981303C02C
:100DF00081E0943009F480E008950F931F93CF931E
:100E0000DF93EC018A018C85843021F00E947D0EF5
:100E1000892B39F481E090E09B838A8380E090E025
:100E200001C0C801DF91CF911F910F910895FC017E
:100E30008485843011F00C94740F80E090E0089564
:100E4000CF93DF931F92CDB7DEB741E050E0BE01F4
:100E50006F5F7F4FFC0184850E94140F18161906DE
:100E60001CF4898190E002C08FEF9FEF0F90DF911B
:100E7000CF910895FC0184850C94140F0F931F9358
:100E8000CF93DF931F92CDB7DEB78C01DC01ED91DC
:100E9000FC910480F581E02D0995892B51F0BE016C
:100EA0006F5F7F4FF80184850E949F0F898190E0DA
:100EB00002C08FEF9FEF0F90DF91CF911F910F91A5
:100EC0000895FC0184850C94CE0FCF92DF92EF92AF
:100ED000FF920F931F93CF93DF93CDB7DEB7AF97FA
:100EE0000FB6F894DEBF0FBECDBF7C018B016A0147
:100EF000CE0101960E94F716CE0109960E94280C99
:100F0000CE018A960E94F71669EF71E0CE018496B1
:100F10000E94A706BE016C5D7F4FCE0101960E9424
:100F20002002AE01465D5F4FB801CE0101960E94DE
:100F30007F0481309105C1F4D701ED91FC910484C7
:100F4000F585E02D83EA91E09DA38CA30CA51DA55A
:100F50002EA53FA50EA31FA328A739A7A601BE0152
:100F60006C5D7F4FC7010995AF960FB6F894DEBF51
:100F70000FBECDBFDF91CF911F910F91FF90EF90EA
:100F8000DF90CF900895FC011382128248EE53E067
:100F900060E070E044835583668377838FE391E05C
:100FA0009183808384E084870895FC01262F138237
:100FB000128248EE53E060E070E04483558366831C
:100FC00077838FE391E09183808324870895FC01E8
:100FD0008485843011F00C94270D80E00895DF9211
:100FE000EF92FF920F931F93CF93DF93EC017B015E
:100FF0008A018C85843009F045C0D12C8D2D0E944A
:10100000270D811102C0DC8607C08B7F8831D9F3A0
:10101000D39484E0D812F2CF8C85843099F120915A
:101020001001309111012F5F3F4F11F420E030EC9F
:101030003093110120931001409110015091110142
:1010400020E061E00E94790DB7016E5F7F4FA8013B
:101050008C850E94FF0D811103C084E08C8712C033
:10106000CE010E94E707873151F061E070E080E037
:1010700090E00E94C613CE010E94E707ECCF81E00A
:1010800090E002C080E090E0DF91CF911F910F913E
:10109000FF90EF90DF900895CF92DF92EF92FF9252
:1010A000CF93DF93EC018C85843049F10E94570E79
:1010B0000E9497136B017C01CE010E94E7078823F1
:1010C000A1F061E070E080E090E00E94C6130E9411
:1010D00097136C197D098E099F09683E734081053D
:1010E000910550F38C850E944F0DEC85F0E0EE0FDA
:1010F000FF1FEF5FFD4F1182108284E08C87DF912C
:10110000CF91FF90EF90DF90CF900895CF93DF9332
:10111000EC018C858430D1F0CE010E94E707843148
:10112000A9F0882399F0883189F08C3169F4E8813D
:10113000F9810480F581E02DCE01099521E0892B0C
:1011400009F420E0822F03C081E001C080E0DF913C
:10115000CF9108950F9300E020E040E060E08FE041
:1011600092E00E9401170F910895CF93DF931F9291
:10117000CDB7DEB76983DC01ED91FC910280F3818C
:10118000E02D41E050E0BE016F5F7F4F09950F9069
:10119000DF91CF910895EF92FF920F931F93CF931A
:1011A000DF93CDB7DEB72D970FB6F894DEBF0FBE35
:1011B000CDBF7C0100E010E0602FCE0101960E94BF
:1011C000D507CE0101960E94E707811116C0F701ED
:1011D0004481558120E061E0802F0E94790D802FAD
:1011E0000E94CD0DF70184819581F801EE0FFF1F5C
:1011F000EF5FFD4F9183808305C00F5F1F4F043069
:101200001105D1F62D960FB6F894DEBF0FBECDBFF7
:10121000DF91CF911F910F91FF90EF900895FC0106
:101220001382128283E691E09183808375836483C5
:101230000895BF92CF92DF92EF92FF920F931F9388
:10124000CF93DF93CDB7DEB72D970FB6F894DEBFFF
:101250000FBECDBF8C0141E0C42E42E0D42EB12C94
:10126000E12CF12C6B2DCE0101960E94D507D60101
:101270002D913D916D01F8018481958128173907E1
:10128000B1F4CE0101960E94E707843169F0CE01E6
:1012900001960E94E7078C3151F4CE0101960E941D
:1012A0001707892B99F003C0EE24E394F12CB39433
:1012B000F4E0BF12D7CFEF2871F4D801ED91FC9183
:1012C0000480F581E02DC801099505C0CE01019685
:1012D0000E944C08ECCF2D960FB6F894DEBF0FBEDF
:1012E000CDBFDF91CF911F910F91FF90EF90DF90D5
:1012F000CF90BF9008957F928F929F92AF92BF92AE
:10130000CF92DF92EF92FF920F931F93CF93DF93D1
:10131000CDB7DEB72D970FB6F894DEBF0FBECDBFA9
:101320006C015B014A010E94190951E0E52E52E06F
:10133000F52E712C00E010E0672DCE0101960E9481
:10134000D507F701219131917F01F60184819581C3
:101350002817390731F4CE0101960E94E70787313B
:10136000C9F07394F4E07F12E7CFC8012D960FB651
:10137000F894DEBF0FBECDBFDF91CF911F910F91CB
:10138000FF90EF90DF90CF90BF90AF909F908F90A5
:101390007F900895A401B501CE0101960E94FD063B
:1013A000080F191FDECFBF92CF92DF92EF92FF920C
:1013B0000F931F93CF93DF93CDB7DEB72D970FB663
:1013C000F894DEBF0FBECDBF8C016B01CB010E9434
:1013D000190961E0E62E62E0F62EB12C6B2DCE01EC
:1013E00001960E94D507F701219131917F01F60105
:1013F000848195812817390751F5CE0101960E9405
:10140000E707873111F08C3111F5CE0101960E946A
:101410001707892BE1F08B819C81F80193838283EC
:101420008D819E81AF81B88584839583A683B783A0
:1014300049855A856B857C8540875187628773878C
:101440008FE391E0918380838D85848708C0B39476
:10145000F4E0BF12C3CF64E0C8010E94D507C80101
:101460002D960FB6F894DEBF0FBECDBFDF91CF91A2
:101470001F910F91FF90EF90DF90CF90BF90089554
:101480000F9300E020E040E060E085E192E00E9400
:1014900001170F910895DC01ED91FC91008CF18D05
:1014A000E02D099423EA31E0FC0131832083FB0124
:1014B0004089518962897389FC0142835383648323
:1014C00075830895FC01848995890895FC01818DB7
:1014D000928D0895CF93DF931F92CDB7DEB76983C6
:1014E000DC01ED91FC910280F381E02D41E050E0C0
:1014F000BE016F5F7F4F09950F90DF91CF910895E7
:101500000895CF93DF93EC01888D843061F00E94C1
:101510004F0DE88DF0E0EE0FFF1FEF5FFD4F1182E2
:10152000108284E0888FDF91CF910895FC01178AA3
:10153000168A6E5F7F4F808D0C941610FC01808D93
:101540000C945C10CF93DF93EC019A018E899F89F4
:10155000AB01BC01888D0E94CF0F2E893F89280FD7
:10156000391F3F8B2E8BDF91CF9108950F931F93DF
:10157000CF93DF931F92CDB7DEB78C01FC01818D35
:10158000928D892B59F041E050E0BE016F5F7F4F93
:10159000808D0E94140F181619061CF08FEF9FEF14
:1015A00008C0F801818D928D0197928F818F89817A
:1015B00090E00F90DF91CF911F910F910895CF93FD
:1015C000DF93EC01898D9A8D009719F48FEF9FEFCF
:1015D00010C04817590708F0AC01888D0E94140FFD
:1015E000181619069CF7298D3A8D281B390B3A8F4E
:1015F000298FDF91CF910895CF93DF931F92CDB7BD
:10160000DEB7FC01218D328D232B49F0BE016F5FC7
:101610007F4F808D0E949F0F898190E002C08FEFE5
:101620009FEF0F90DF91CF910895FF920F931F933B
:10163000CF93DF93EC018B01888D8430E1F4F12CA2
:101640008F2D0E94270D811102C0F88E06C08831AF
:10165000E1F3F39484E0F812F3CF888D843059F0ED
:101660001D870C871A8E198E20E0A80162E00E9467
:10167000790D81E001C080E0DF91CF911F910F9142
:10168000FF9008950F931F93CF93DF93CDB7DEB7ED
:1016900028970FB6F894DEBF0FBECDBF8C01F801BE
:1016A000818D928D892B49F0D801ED91FC910680B6
:1016B000F781E02DC8010995F2CF808D0E94740F4B
:1016C0001816190644F548E050E0BE016F5F7F4FE1
:1016D000D80158968C910E94140F18161906ECF434
:1016E000BE016F5F7F4FC8010E960E940D178D815E
:1016F00090E0982F88272E81820F911DF801958BFD
:10170000848B8F8190E0982F88272885820F911DE8
:10171000928F818F02C080E090E028960FB6F894F7
:10172000DEBF0FBECDBFDF91CF911F910F91089506
:101730008F929F92AF92BF92CF92DF92EF92FF92E1
:101740000F931F93CF93DF9300D000D000D0CDB77D
:10175000DEB78C017B014A01FC01808D843009F0E9
:1017600063C073E0A72E74E0B72EC12CD12CC50145
:101770000E947211811103C0F801C08E0AC0883125
:10178000D9F3FFEFCF1ADF0AB394E4E0CE16D10409
:1017900071F7F801808D843009F446C096E0E2E1EB
:1017A000F1E0DE01119601900D929A95E1F7F701B3
:1017B00093819F779C8394819D8395819E83B701BC
:1017C0006E5F7F4F90E0982F882744E050E0845F61
:1017D0009B4F0E944311F801808D90E00496F82EF3
:1017E000EE24692DC70140960E94B910682DC701EB
:1017F00041960E94B910F801808D90E0982F8827BB
:1018000046E050E0BE016F5F7F4F8A5F9B4F0E94B2
:101810004311F801128E118E20E8A40162E0808D40
:101820000E94790D81E001C080E026960FB6F89401
:10183000DEBF0FBECDBFDF91CF911F910F91FF9003
:10184000EF90DF90CF90BF90AF909F908F900895D2
:10185000CF93DF93EC011B821A8248EE53E060E0E5
:1018600070E04C835D836E837F838DE691E0998386
:101870008883CE010E960E94F71684E0888FDF9150
:10188000CF910895CF92DF92EF92FF920F931F9323
:10189000CF93DF93CDB7DEB7AF970FB6F894DEBF27
:1018A0000FBECDBF7C018B016A01CE0101960E9463
:1018B000F716CE0109960E94280CCE018A960E9446
:1018C000F71669EF71E0CE0184960E94A706BE016B
:1018D0006C5D7F4FCE0101960E942002AE01465DF5
:1018E0005F4FB801CE0101960E947F0481309105BF
:1018F000C1F4D701ED91FC910088F189E02D83EAD4
:1019000091E09DA38CA30CA51DA52EA53FA50EA31C
:101910001FA328A739A7A601BE016C5D7F4FC70191
:101920000995AF960FB6F894DEBF0FBECDBFDF911D
:10193000CF911F910F91FF90EF90DF90CF9008957E
:101940000F9300E020E040E060E08BE192E00E9435
:1019500001170F910895CF92DF92EF92FF920F93AC
:1019600030E0C12CF2E1DF2EFAE7EF2EF12C4C151E
:101970005D056E057F0540F4F694E794D794C7940F
:101980003F5F3630A1F737E041E04327211102C025
:1019900050E701C050E5242F30E03595279523709E
:1019A0000C70202B252BFC012083417041830F916B
:1019B000FF90EF90DF90CF90089590E0982F8827C8
:1019C00044E050E0845F9B4F0C944311282F30E09B
:1019D0002C5F3F4F922F8827860F971F0C94721110
:1019E00062E070E00C94E60CFB01282F30E02C5FE5
:1019F0003F4F922F8827642F8E0F9F1F0C94B91092
:101A0000CF93DF93C82FD62F472F64E070E00E945A
:101A1000F40C4D2F65E070E08C2FDF91CF910C948A
:101A2000F40C462F62E070E00C94F40CCF93DF933B
:101A3000C82FD62F472F60E170E00E94F40C4D2F85
:101A400061E170E08C2FDF91CF910C94F40C0F9337
:101A50001F93CF93DF9300D01F92CDB7DEB7182F1F
:101A600000E021E040E059E06DE370E0CE01019636
:101A70000E94AB0C89819A810E94120563E070E09C
:101A8000812F0E94E60C8B830E942C058B810F9086
:101A90000F900F90DF91CF911F910F9108950F93A9
:101AA0001F93CF93DF9300D0CDB7DEB7182F00E0A0
:101AB00021E040E059E06DE370E0CE0101960E9424
:101AC000AB0C89819A810E94120540E150E0612FA0
:101AD00083E292E00E943C136FEF812F0E94110D70
:101AE0000E942C050F900F90DF91CF911F910F91C5
:101AF0000895CF92DF92EF92FF920F931F93CF93AF
:101B0000DF9300D0CDB7DEB7182FD62E7A01C22EC4
:101B10008FEF860F8530A8F5812F0E944F0D00E0D2
:101B200021E040E059E06DE370E0CE0101960E94B3
:101B3000AB0C89819A810E9412054D2D4C2960E0E1
:101B400070E0812F0E94F40CE114F10411F0B70150
:101B50000AC060912102709122026F5F7F4F7093E3
:101B6000220260932102812F0E94000D41E050E08B
:101B7000612F83E292E00E943C130E942C0581E0D9
:101B800001C080E00F900F90DF91CF911F910F91D6
:101B9000FF90EF90DF90CF9008950F931F93CF9316
:101BA000DF9300D0CDB7DEB7182F00E021E040E092
:101BB00059E06DE370E0CE0101960E94AB0C898183
:101BC0009A810E94120563E070E0812F0E94E60C6A
:101BD000833121F00E942C0580E00AC042E050E0F1
:101BE000612F83E292E00E943C130E942C0581E069
:101BF0000F900F90DF91CF911F910F910895CF9289
:101C0000DF92EF92FF920F931F93CF93DF9300D059
:101C1000CDB7DEB7182F7B016A01FB0180818F3FB2
:101C200051F481818F3F99F482818F3F81F48381C8
:101C30008F3F69F430C081110AC0FB01818181119D
:101C400006C08281811103C08381882321F1C114E0
:101C5000D10409F100E021E040E059E06DE370E0DB
:101C6000CE0101960E94AB0C89819A810E941205D7
:101C7000B701812F0E94DD0CB601812F0E94160D45
:101C800044E050E0612F83E292E00E943C130E9406
:101C90002C0581E001C080E00F900F90DF91CF9183
:101CA0001F910F91FF90EF90DF90CF9008950F93C9
:101CB0001F93CF93DF9300D0CDB7DEB7182F00E08E
:101CC00021E040E059E06DE370E0CE0101960E9412
:101CD000AB0C89819A810E94120548E050E0612F87
:101CE00083E292E00E943C130E942C050F900F901B
:101CF000DF91CF911F910F910895BF92CF92DF9204
:101D0000EF92FF920F931F93CF93DF9300D01F9218
:101D1000CDB7DEB7B82E6B017A01413088E05807A5
:101D200018F0E12C98E0F92E00E021E040E059E0C5
:101D30006DE370E0CE0101960E94AB0C89819A811F
:101D40000E9412056B2D83E292E00E94AA118C0181
:101D500063E070E08B2D0E94E60C8B830E942C05C3
:101D60008B81873111F08C3131F40E944C130E15A8
:101D70001F05D0F202C0E12CF12C00E021E040E090
:101D800059E06DE370E0CE0101960E94AB0C8981B1
:101D90009A810E9412059701A6016B2D83E292E0C1
:101DA0000E94691240E250E06B2D83E292E00E94B3
:101DB0003C138B2D0E94F00C84FD22C063E070E088
:101DC0008B2D0E94E60C811108C00E942C058B2DE2
:101DD0000E944F0D80E090E01AC00E942C050E94E6
:101DE0004C1300E021E040E059E06DE370E0CE01EB
:101DF00001960E94AB0C89819A810E941205D9CF6D
:101E000060E18B2D0E94110D0E942C05C7010F90DF
:101E10000F900F90DF91CF911F910F91FF90EF9056
:101E2000DF90CF90BF900895AF92BF92CF92DF9294
:101E3000EF92FF920F931F93CF93DF9300D0CDB714
:101E4000DEB7182F5B016A0100E021E040E059E0B5
:101E50006DE370E0CE0101960E94AB0C89819A81FE
:101E60000E941205612F83E292E00E94DE117C0144
:101E70000097A1F463E070E0812F0E94E60C8431AA
:101E800019F1882309F121E030E08C3111F420E0D0
:101E900030E0EE24FF24E21AF30A16C0C816D90671
:101EA0000CF476011E141F047CF400E09701A501D8
:101EB000612F83E292E00E94EC1240E450E0612F37
:101EC00083E292E00E943C130E942C05C7010F9010
:101ED0000F90DF91CF911F910F91FF90EF90DF90C6
:101EE000CF90BF90AF9008950F931F93CF93DF9340
:101EF00000D000D0CDB7DEB7182F00E021E040E0E1
:101F000059E06DE370E0CE0101960E94AB0C89812F
:101F10009A810E941205612F83E292E00E94DE11F5
:101F20008B839C830E942C058B819C810F900F904A
:101F30000F900F90DF91CF911F910F910895EF9225
:101F4000FF920F931F93CF93DF9300D0CDB7DEB7EF
:101F5000182F7B0100E021E040E059E06DE370E0E4
:101F6000CE0101960E94AB0C89819A810E941205D4
:101F700001E021E030E0A701612F83E292E00E94BE
:101F8000EC120E942C0581E090E00F900F90DF9101
:101F9000CF911F910F91FF90EF90089508959F9218
:101FA000AF92BF92CF92DF92EF92FF920F931F9367
:101FB000CF93DF9300D0CDB7DEB7982E6B015A01D7
:101FC000790100E021E040E059E06DE370E0CE01EE
:101FD00001960E94AB0C89819A810E941205692D9D
:101FE00083E292E00E94AA118E159F0530F4692DBC
:101FF00083E292E00E94AA117C0187019501A6016B
:10200000692D83E292E00E94FA110E942C05C7011B
:102010000F900F90DF91CF911F910F91FF90EF9054
:10202000DF90CF90BF90AF909F900895CF92DF92B6
:10203000EF92FF920F931F93CF93DF9300D0CDB712
:10204000DEB7182F7B016A01FB018081811109C075
:102050008181811106C08281811103C0838188231F
:10206000F1F0C114D104D9F000E021E040E059E0E2
:102070006DE370E0CE0101960E94AB0C89819A81DC
:102080000E941205B701812F0E94DD0CB601812F3D
:102090000E94160D0E942C0581E090E002C080E0B5
:1020A00090E00F900F90DF91CF911F910F91FF90D3
:1020B000EF90DF90CF9008950F931F93CF93DF930E
:1020C00000D0CDB7DEB7182F00E021E040E059E0A6
:1020D0006DE370E0CE0101960E94AB0C89819A817C
:1020E0000E94120540E250E0612F83E292E00E94DC
:1020F0003C13812F0E94F00C84FD21C0812F0E948F
:10210000F00C83FF09C068E1812F0E94110D0E942D
:102110002C0580E090E01BC00E942C050E944C130F
:1021200000E021E040E059E06DE370E0CE0101966F
:102130000E94AB0C89819A810E941205DACF60E17E
:10214000812F0E94110D0E942C0581E090E00F90DC
:102150000F90DF91CF911F910F9108958EBD0000D8
:102160000DB407FEFDCF8EB508952A9808952A9ADA
:1021700008951F93CF93DF9300D0CDB7DEB7182F0C
:102180006A8399830E94B51080EF0E94AE109981F6
:10219000892F0E94AE10812F0E94AE106A81862F77
:1021A0000E94AE100E94B71081E00F900F90DF9157
:1021B000CF911F910895CF93DF93EC016CE271E012
:1021C00080E090E00E94C6130E94DF01229A809175
:1021D000EB01882399F09FB7F8948091EB0181304F
:1021E00059F48DB38093E9012DB38091EA01809574
:1021F00082238DBB9FBF02C09093E90180E58CBD17
:102200001DBC60E880E090E00E94B91065E58BE1BC
:1022100090E00E94B91065E58AE190E00E94B91053
:102220008091EB01882361F09FB7F8942091EB0136
:102230008091E901213019F48DBB9FBF01C08FBF90
:1022400080E090E49983888380E090E6998788878E
:1022500080E098E49B838A8380E098E69B878A8766
:1022600080E090E59D838C8380E090E79D878C875C
:1022700080E098E59F838E8380E098E79F878E8734
:10228000DF91CF910895CF92DF92EF92FF920F935B
:102290001F93CF93DF93EC017A018B016C01C40E85
:1022A000D51ECC15DD05A1F00E94B51080EF0E946F
:1022B000AE108D2F0E94AE108C2F0E94AE10219672
:1022C000F80181918F010E94AE100E94B710E9CFF2
:1022D000C701DF91CF911F910F91FF90EF90DF9099
:1022E000CF9008951F93CF93DF931F92CDB7DEB7A2
:1022F000182F99830E94B5108FE00E94AE1099812B
:10230000892F0E94AE10812F0E94AE1080E00E94A3
:10231000AE1089830E94B71089810F90DF91CF9111
:102320001F9108951F93CF93DF93182F60E270E001
:102330000E94E60CC82FD0E061E270E0812F0E947D
:10234000E60CDC2FCC279E01282BC901DF91CF9111
:102350001F910895FF920F931F93CF93DF93F62E53
:10236000C0E0D0E08F2D0E9492118C01009721F0E7
:102370008F2D0E949211EC01C017D10799F7CE0161
:10238000DF91CF911F910F91FF9008951F93CF93ED
:10239000DF93182F66E270E00E94E60CC82FD0E0B1
:1023A00067E270E0812F0E94E60CDC2FCC279E01B3
:1023B000282BC901DF91CF911F910895FF920F93B0
:1023C0001F93CF93DF93F62EC0E0D0E08F2D0E94B5
:1023D000C6118C01009721F08F2D0E94C611EC01CF
:1023E000C017D10799F7CE01DF91CF911F910F91BF
:1023F000FF9008956F927F929F92AF92BF92CF927B
:10240000DF92EF92FF920F931F93CF93DF931F9270
:10241000CDB7DEB7D82E962E3A01590164E270E0AE
:10242000892D99830E94E60CE82EF12C65E270E07C
:10243000892D0E94E60CFE2CEE24E82AE60CF71CFF
:10244000970137706D2C9981792E690C711C690C7C
:10245000711CD301ED91FC91E20FF31FC901800FB4
:10246000911F81309840A0F0C12C48E0D42EC21AB0
:10247000D30AA601B501CF010E944311A8014C194E
:102480005D09B5016C0D7D1DF3018081918103C053
:10249000A801B501CF010E944311E00EF11E4F2D9E
:1024A00064E270E0892D0E94F40C4E2D65E270E02C
:1024B000892D0F90DF91CF911F910F91FF90EF9099
:1024C000DF90CF90BF90AF909F907F906F900C94D3
:1024D000F40C0F931F9389019A0140E050E00E9491
:1024E000FA111F910F910895CF92DF92EF92FF9210
:1024F0000F931F93CF93DF93EC017A018B016C0153
:10250000C40ED51ECC15DD05A9F00E94B5108FE0D4
:102510000E94AE108D2F0E94AE108C2F0E94AE1024
:10252000219680E00E94AE10F80181938F010E94F5
:10253000B710E8CFC701DF91CF911F910F91FF90A6
:10254000EF90DF90CF900895AF92BF92CF92DF923D
:10255000EF92FF920F931F93CF93DF9300D0CDB7ED
:10256000DEB75A8349835901E981FA81F7707C010A
:10257000E60EF11CE60EF11CD70118968D919C9188
:1025800019978E0F9F1F98012E0F3F1F2130384043
:1025900098F0C12C68E0D62ECE1ADF0AA601B5014C
:1025A0000E947412A8014C195D09B5016C0D7D1DC6
:1025B000F7018085918502C0A801B5010F900F90A9
:1025C000DF91CF911F910F91FF90EF90DF90CF900F
:1025D000BF90AF900C9474128F929F92AF92BF9263
:1025E000CF92DF92EF92FF920F931F93CF93DF93DF
:1025F0006C01962E5A017901802E68E270E0892DD7
:102600000E94E60CC82FD0E069E270E0892D0E949C
:10261000E60CDC2FCC27C82B87019501AE01692D74
:10262000C6010E94A41281101AC0CE0DDF1D4D2FCD
:1026300068E270E0892D0E94F40C4C2F69E270E092
:10264000892DDF91CF911F910F91FF90EF90DF9037
:10265000CF90BF90AF909F908F900C94F40CDF912F
:10266000CF911F910F91FF90EF90DF90CF90BF908F
:10267000AF909F908F900895CF93C62F61E070E048
:102680008C2F0E94F40C61E070E08C2F0E94E60C0D
:102690008111F9CFCF91089508951F920F920FB62F
:1026A0000F9211242F933F938F939F93AF93BF93D8
:1026B0008091340290913502A0913602B091370298
:1026C0003091330223E0230F2D3720F40196A11D12
:1026D000B11D05C026E8230F0296A11DB11D209350
:1026E00033028093340290933502A0933602B09364
:1026F00037028091380290913902A0913A02B0914C
:102700003B020196A11DB11D8093380290933902BE
:10271000A0933A02B0933B02BF91AF919F918F91EA
:102720003F912F910F900FBE0F901F9018952FB7CC
:10273000F894609134027091350280913602909144
:1027400037022FBF08953FB7F894809138029091D7
:102750003902A0913A02B0913B0226B5A89B05C070
:102760002F3F19F00196A11DB11D3FBF6627782F9D
:10277000892F9A2F620F711D811D911D42E0660FF6
:10278000771F881F991F4A95D1F708958F929F92BE
:10279000AF92BF92CF92DF92EF92FF926B017C01DA
:1027A0000E94A3134B015C01C114D104E104F104A4
:1027B000F1F00E944C130E94A313681979098A0949
:1027C0009B09683E73408105910570F321E0C21AB0
:1027D000D108E108F10888EE880E83E0981EA11C5C
:1027E000B11CC114D104E104F10429F7DDCFFF903D
:1027F000EF90DF90CF90BF90AF909F908F90089513
:10280000789484B5826084BD84B5816084BD85B5CB
:10281000826085BD85B5816085BDEEE6F0E0808192
:1028200081608083E1E8F0E01082808182608083B3
:10283000808181608083E0E8F0E080818160808336
:10284000E1EBF0E0808184608083E0EBF0E0808168
:1028500081608083EAE7F0E080818460808380810A
:1028600082608083808181608083808180688083B2
:102870001092C1000895833081F028F4813099F0DE
:102880008230A1F008958730A9F08830B9F0843003
:10289000D1F4809180008F7D03C0809180008F777C
:1028A00080938000089584B58F7702C084B58F7DB2
:1028B00084BD08958091B0008F7703C08091B000EF
:1028C0008F7D8093B0000895CF93DF9390E0FC015B
:1028D000E458FF4F2491FC01E057FF4F8491882377
:1028E00049F190E0880F991FFC01E255FF4FA59137
:1028F000B4918C559F4FFC01C591D4919FB7611144
:1029000008C0F8948C91209582238C93888182232F
:102910000AC0623051F4F8948C91322F30958323A1
:102920008C938881822B888304C0F8948C91822BAD
:102930008C939FBFDF91CF9108950F931F93CF93F7
:10294000DF931F92CDB7DEB7282F30E0F901E859A9
:10295000FF4F8491F901E458FF4F1491F901E057BA
:10296000FF4F04910023C9F0882321F069830E945E
:102970003B146981E02FF0E0EE0FFF1FEC55FF4F95
:10298000A591B4919FB7F8948C91611103C01095F3
:10299000812301C0812B8C939FBF0F90DF91CF913A
:1029A0001F910F910895FC01818D228D90E0805C34
:1029B0009F4F821B91098F7399270895FC01918D78
:1029C000828D981731F0828DE80FF11D858D90E092
:1029D00008958FEF9FEF0895FC01918D828D9817D8
:1029E00061F0828DDF01A80FB11D5D968C91928DF3
:1029F0009F5F9F73928F90E008958FEF9FEF0895F0
:102A000080E796E1892B49F080E090E0892B29F05E
:102A10000E94701681110C9400000895FC01848DB1
:102A2000DF01A80FB11DA35ABF4F2C91848D90E0F8
:102A300001968F739927848FA689B7892C93A089D3
:102A4000B1898C9180648C93938D848D981306C08A
:102A50000288F389E02D80818F7D80830895CF9354
:102A6000DF93EC01888D8823C9F0EA89FB89808196
:102A700085FD05C0A889B9898C9186FD0FC00FB668
:102A800007FCF5CF808185FFF2CFA889B9898C91A9
:102A900085FFEDCFCE010E940E15E7CFDF91CF91DC
:102AA0000895CF92DF92FF920F931F93CF93DF93FE
:102AB0001F92CDB7DEB76C0181E0D60158968C939A
:102AC00058975B969C915B975C968C915C9798135A
:102AD00007C05096ED91FC915197808185FD2EC0E5
:102AE000F601038D10E00F5F1F4F0F731127F02EBB
:102AF000F601848DF81211C00FB607FCF9CFD6018C
:102B00005096ED91FC915197808185FFF1CFC601E0
:102B100069830E940E156981EBCF838DE80FF11D4B
:102B2000E35AFF4F6083D6015B960C935B975296F6
:102B3000ED91FC915397808180620CC0D60156962E
:102B4000ED91FC91579760835096ED91FC915197D0
:102B500080818064808381E090E00F90DF91CF914D
:102B60001F910F91FF90DF90CF900895BF92CF9269
:102B7000DF92EF92FF92CF93DF93EC016A017B012A
:102B8000B22EE889F98982E08083411581EE5807E9
:102B900061057105A1F060E079E08DE390E0A701A7
:102BA00096010E94CB1821503109410951095695CF
:102BB000479537952795211580E1380798F0E889E2
:102BC000F989108260E874E88EE190E0A70196012F
:102BD0000E94CB182150310941095109569547955A
:102BE00037952795EC85FD853083EE85FF8520831D
:102BF000188EEC89FD89B082EA89FB898081806129
:102C00008083EA89FB89808188608083EA89FB89E7
:102C1000808180688083EA89FB8980818F7D8083C1
:102C2000DF91CF91FF90EF90DF90CF90BF9008950C
:102C30001F920F920FB60F9211242F938F939F9391
:102C4000EF93FF93E0914C02F0914D028081E0916F
:102C50005202F091530282FD12C090818091550280
:102C60008F5F8F7320915602821751F0E0915502C9
:102C7000F0E0E45CFD4F958F8093550201C08081A8
:102C8000FF91EF919F918F912F910F900FBE0F9019
:102C90001F9018951F920F920FB60F9211242F9329
:102CA0003F934F935F936F937F938F939F93AF93D4
:102CB000BF93EF93FF938CE392E00E940E15FF9178
:102CC000EF91BF91AF919F918F917F916F915F91A4
:102CD0004F913F912F910F900FBE0F901F9018951D
:102CE0008CE392E00E94D31421E0892B09F420E0C8
:102CF000822F089510923F0210923E0288EE93E0D8
:102D0000A0E0B0E08093400290934102A093420281
:102D1000B093430283E991E090933D0280933C029B
:102D200085EC90E0909349028093480284EC90E017
:102D300090934B0280934A0280EC90E090934D0276
:102D400080934C0281EC90E090934F0280934E026E
:102D500082EC90E0909351028093500286EC90E0D8
:102D60009093530280935202109255021092560291
:102D700010925702109258020895AF92BF92CF92CC
:102D8000DF92EF92FF920F931F93CF93DF936C012B
:102D90007B01C0E0D0E000E010E0F601EC0FFD1F89
:102DA0004AE050E06281C7010E94FC175C016EE2BC
:102DB000C7010E9483178A0D9B1D080F191F2196BA
:102DC000C330D10551F74AE050E0F6016581C701F3
:102DD0000E94FC17800F911FDF91CF911F910F91DF
:102DE000FF90EF90DF90CF90BF90AF90089523EACF
:102DF00031E0FC0131832083128213821482158218
:102E000008950F93FC0183EA91E0918380836283AC
:102E10004383248305830F910895FB0140815181F1
:102E200062817381FC0142835383648375830895B7
:102E300083EA91E09093DA028093D9021092DB0248
:102E40001092DC021092DD021092DE0208950895C5
:102E50000E9400140E9427170E948F00C0E0D5E155
:102E60000E944E012097E1F30E940015F9CFCF9206
:102E7000DF92EF92FF920F931F93CF93DF937C012A
:102E80006A01EB0100E010E00C151D0571F069917D
:102E9000D701ED91FC910190F081E02DC7010995DA
:102EA000892B19F00F5F1F4FEFCFC801DF91CF9132
:102EB0001F910F91FF90EF90DF90CF9008956115D3
:102EC000710581F0DB010D900020E9F7AD01415063
:102ED0005109461B570BDC01ED91FC910280F381F7
:102EE000E02D099480E090E00895DC01ED91FC91E3
:102EF000DB0114964D915C9115976D917C91028048
:102F0000F381E02D0994DC01ED91FC910190F081B9
:102F1000E02D099465EA71E00C945F170F931F93FD
:102F2000CF93DF93EC010E945F178C01CE010E94CA
:102F30008A17800F911FDF91CF911F910F910895F4
:102F40008F929F92AF92BF92DF92EF92FF920F9378
:102F50001F93CF93DF93CDB7DEB7A1970FB6F89449
:102F6000DEBF0FBECDBF7C01F42FD52ECB0119A241
:102F7000223008F42AE08E010F5D1F4F822E912C23
:102F8000A12CB12C6F2F7D2DA50194010E94CB188F
:102F9000F22FD32ECA01015011096A3014F4E0E374
:102FA00001C0E7E3E60FD801EC93232B242B252B5C
:102FB00049F7B801C7010E945F17A1960FB6F894B0
:102FC000DEBF0FBECDBFDF91CF911F910F91FF905C
:102FD000EF90DF90BF90AF909F908F900895211554
:102FE000310541F4DC01ED91FC910190F081E02D7F
:102FF000642F09940C94A0179A01462F50E060E0CA
:1030000070E00C94EF1770E09B01382BC901089514
:10301000FC01808191810C948B19CF93DF93EC019B
:1030200088819981009711F00E948B19198218826A
:103030001D821C821B821A82DF91CF9108950F930B
:103040001F93CF93DF93EC018B016F5F7F4F8881DC
:1030500099810E941A1A009731F0998388831B8303
:103060000A8381E001C080E0DF91CF911F910F9131
:103070000895CF93DF93EC0188819981892B29F002
:103080008A819B818617970760F4CE010E941F18E2
:10309000882341F08C819D81892B19F4E881F98185
:1030A000108281E0DF91CF910895EF92FF920F930C
:1030B0001F93CF93DF93EC017B018A01BA010E9439
:1030C0003918811104C0CE010E940D1807C01D835C
:1030D0000C83B701888199810E94ED1ACE01DF919E
:1030E000CF911F910F91FF90EF900895FC011182F5
:1030F000108213821282158214826115710559F0B3
:10310000FB0101900020E9F7AF0141505109461B36
:10311000570B0C9455180895EF92FF920F931F933D
:10312000CF93DF93EC017B010C811D81611571054B
:1031300011F480E016C04115510591F0040F151FE0
:10314000B8010E9439188823A1F3288139818C8124
:103150009D81B701820F931F0E94ED1A1D830C837E
:1031600081E0DF91CF911F910F91FF90EF90089533
:10317000CF93DF93EC01FB01448155816081718124
:103180000E948C18811103C0CE010E940D18CE013F
:10319000DF91CF910895A1E21A2EAA1BBB1BFD015E
:1031A0000DC0AA1FBB1FEE1FFF1FA217B307E40726
:1031B000F50720F0A21BB30BE40BF50B661F771F7E
:1031C000881F991F1A9469F760957095809590955E
:1031D0009B01AC01BD01CF010895EE0FFF1F0590CB
:1031E000F491E02D0994CF93DF938230910510F490
:1031F00082E090E0E091E102F091E20220E030E034
:10320000A0E0B0E0309739F140815181481759076B
:10321000B8F04817590771F482819381109729F00B
:1032200013969C938E9312972CC09093E2028093F6
:10323000E10227C02115310531F04217530718F07C
:10324000A901DB0101C0EF019A01BD01DF0102808C
:10325000F381E02DD7CF21153105F9F0281B390B6B
:103260002430310580F48A819B816115710521F03C
:10327000FB019383828304C09093E2028093E10276
:10328000FE01329644C0FE01E20FF31F8193919339
:1032900022503109398328833AC02091DF023091CE
:1032A000E002232B41F4209102013091030130937D
:1032B000E0022093DF0220910001309101012115ED
:1032C000310541F42DB73EB74091040150910501FD
:1032D000241B350BE091DF02F091E002E217F307C7
:1032E000A0F42E1B3F0B2817390778F0AC014E5F76
:1032F0005F4F2417350748F04E0F5F1F5093E002D1
:103300004093DF028193919302C0E0E0F0E0CF01AF
:10331000DF91CF910895CF93DF93009709F487C091
:10332000FC01329713821282C091E102D091E20235
:10333000209781F420813181280F391F8091DF028D
:103340009091E0028217930779F5F093E002E09301
:10335000DF026DC0DE0120E030E0AE17BF0750F4A1
:1033600012964D915C9113979D014115510509F1FC
:10337000DA01F3CFB383A28340815181840F951F7B
:103380008A179B0771F48D919C911197840F951F5B
:1033900002969183808312968D919C9113979383CB
:1033A00082832115310529F4F093E202E093E102D2
:1033B0003EC0D9011396FC93EE9312974D915D9107
:1033C000A40FB51FEA17FB0779F480819181840F60
:1033D000951F0296D90111969C938E9382819381B9
:1033E00013969C938E931297E0E0F0E08A819B8184
:1033F000009719F0FE01EC01F9CFCE010296288169
:103400003981820F931F2091DF023091E00228174B
:10341000390769F4309729F41092E2021092E10220
:1034200002C013821282D093E002C093DF02DF91C8
:10343000CF910895A0E0B0E0E0E2FAE10C94F81A30
:10344000EC01CB01209719F40E94F318B8C0FE01DB
:10345000E60FF71F9E0122503109E217F30708F427
:10346000ACC0D9010D911C91119706171707B8F040
:103470000530110508F49FC0A801445051094617B2
:10348000570708F498C002501109061B170B019347
:1034900011936D937C93CF010E948B198CC05B01BB
:1034A000A01AB10A4E01800E911EA091E102B091C6
:1034B000E202612C712C60E070E0109709F449C0C1
:1034C000A815B905C9F5ED90FC901197670142E088
:1034D000C40ED11CCA14DB0478F147018A189B087A
:1034E000640142E0C40ED11C1296BC901297139650
:1034F000AC91B5E0CB16D10440F0B282A3839182A7
:103500008082D9018D939C9309C00E5F1F4F0E0DD1
:103510001F1DF90111830083EB2DFA2F6115710531
:1035200031F0DB011396FC93EE93129744C0F093B5
:10353000E202E093E1023FC06D917C911197661623
:10354000770608F43B01BD0112960D90BC91A02DA9
:10355000B4CF6091DF027091E00268157905E9F45B
:1035600068167906D0F4409100015091010141158F
:10357000510541F44DB75EB76091040170910501AA
:10358000461B570BE417F507C0F4F093E002E093F5
:10359000DF02F901918380830EC00E94F3187C0141
:1035A000009759F0A801BE010E94E41ACE010E94C2
:1035B0008B19C70104C0CE0102C080E090E0CDB7F6
:1035C000DEB7EEE00C94141BFB01DC0102C001909D
:1035D0000D9241505040D8F70895FB01DC01019055
:1035E0000D920020E1F708952F923F924F925F9243
:1035F0006F927F928F929F92AF92BF92CF92DF9203
:10360000EF92FF920F931F93CF93DF93CDB7DEB767
:10361000CA1BDB0B0FB6F894DEBF0FBECDBF0994FB
:103620002A88398848885F846E847D848C849B8452
:10363000AA84B984C884DF80EE80FD800C811B8160
:10364000AA81B981CE0FD11D0FB6F894DEBF0FBE8F
:0A365000CDBFED010895F894FFCFFF
:10365A000000E302800001000000DEADBEEFFEEDD7
:10366A0000C001005E000000636F6E6E65637465E2
:10367A006400524649443A2000636F6E6E65637473
:10368A00696F6E206661696C65640000000000D491
:10369A0006FD06170720073E076107EF0765073A89
:1036AA00074C088608EA06C506C806F206CA0600D6
:1036BA00000000B5087B09CB08000000006A0AA2D6
:1036CA000A660AB60AFC0A800A150B810A960A4299
:1036DA000C9E0A420BDF0A4B0A520A620A980B0036
:1036EA0000000051153717D314EC14DE142F1500FF
:1036FA00000000BD160D0A006E616E00696E66005C
:06370A006F7666002E0040
:00000001FF
