:100000000C9465000C948D000C948D000C948D0064
:100010000C948D000C948D000C948D000C948D002C
:100020000C948D000C948D000C948D000C948D001C
:100030000C948D000C948D000C948D000C948D000C
:100040000C94F4130C948D000C94AD160C94DF16E4
:100050000C948D000C948D000C948D000C948D00EC
:100060000C948D000C948D0000000008000201002B
:100070000003040700000000000000000102040863
:100080001020408001020408102001020408102002
:10009000040404040404040402020202020203032E
:1000A0000303030300000000250028002B000000CC
:1000B0000000240027002A008F00DA0029051C0711
:1000C000B2081D0B78120F17AD1711241FBECFEF0A
:1000D000D8E0DEBFCDBF11E0A0E0B1E0E2E4F8E39C
:1000E00002C005900D92AC3CB107D9F722E0ACEC10
:1000F000B1E001C01D92A93FB207E1F710E0CAECE0
:10010000D0E004C02297FE010E94DA19C83BD10753
:10011000C9F70E94BD170C941F1C0C9400000F938C
:1001200000E020E040E060E08CEC91E00E94961757
:100130000F910895FB014281538164817581FC0117
:100140004283538364837583178216820895FB016B
:1001500020E080E090E06AE03191332309F170ED16
:10016000730F7A3080F4DC016A9FC0016B9F900DA1
:100170001124C097830F911D37FD9A958F3F9105EC
:1001800059F350F314C03E3291F4233081F0DA0178
:10019000A20FB11D12968C932F5F80E090E0DCCF10
:1001A000233029F4FA01858381E090E0089580E00E
:1001B00090E008950F9300E020E040E060E082EDE1
:1001C00091E00E9496170F910895AF92BF92CF923F
:1001D000DF92EF92FF920F931F93CF93DF9300D0A4
:1001E0001F92CDB7DEB76C017B010E943E14F60171
:1001F000778366838601085F1F4FB6016A5F7F4F72
:1002000042E050E0C8010E94250981E090E09A8315
:10021000898342E050E0BE016F5F7F4FC8010E94BA
:10022000250980E091E09A83898342E050E0BE0195
:100230006F5F7F4FC8010E9425091A82198242E030
:1002400050E0BE016F5F7F4FC8010E94250942E068
:1002500050E0BE016F5F7F4FC8010E94250942E058
:1002600050E0BE016F5F7F4FC8010E942509670102
:10027000F6018081882311F1F7016F0181918111CD
:1002800015C05601AE18BF081A141B0494F4AB82B3
:1002900041E050E0BE016D5F7F4FC8010E9425091B
:1002A000A501B701C8010E94250903C08E3229F7B4
:1002B000E8CF7601FFEFEF1AFF0ADACF1B8241E0A9
:1002C00050E0BE016D5F7F4FC8010E942509E12CFF
:1002D000FF24F394FA82E98242E050E0BE016F5FAE
:1002E0007F4FC8010E942509FA82E98242E050E06E
:1002F000BE016F5F7F4FC8010E94250981E090E039
:100300000F900F900F90DF91CF911F910F91FF9061
:10031000EF90DF90CF90BF90AF9008954F925F9293
:100320006F927F928F929F92AF92BF92CF92DF9205
:10033000EF92FF920F931F93CF93DF93CDB7DEB76A
:1003400063970FB6F894DEBF0FBECDBF7C015B0193
:100350006A010E943E142B013C018701085F1F4F78
:100360004501A12CB12CC8010E94C5091816190617
:1003700094F00E943E14641975098609970986163F
:100380009706A806B906D0F062E370E080E090E03E
:100390000E946D14E8CFF701428153816481758119
:1003A000808D918DA28DB38D481759076A077B0701
:1003B00041F4848D958DC59721F406C08FEF9FEF92
:1003C000F9C08EEF9FEFF6C0C8010E94D8080C97C5
:1003D0000CF4EEC04CE050E0BE016F5F7F4FC801EF
:1003E0000E9462098B819C819827892798279A8B84
:1003F000898BF7014681578129813A81421753073A
:1004000011F497FD06C0C8010E94F2088CEF9FEF1F
:10041000D1C08F709270892B31F0C8010E94F20810
:100420008BEF9FEFC7C0AF80B884BA24AB24BA2447
:10043000A114B10419F0E12CF12C23C0C8010E94D1
:10044000F2088AEF9FEFB6C041E050E0BE01635F63
:100450007F4FC8010E9462098D8581111BC08D8567
:100460008111F2CFC8010E943909C8010E943909DF
:10047000C8010E943909C8010E943909FFEFEF1A2B
:10048000FF0A8D819E81982789279827E816F9060B
:10049000D8F20AC08D859FEF980F9D878823F9F2C7
:1004A000C8010E943909F6CFE12CF12C41E050E05F
:1004B000BE016D5E7F4FC8010E9462098B89982F33
:1004C000907C61F4882371F08B899FEF980F9B8B50
:1004D000882341F0C8010E943909F6CFC8010E9463
:1004E00039091B8A8B898111E1CF42E050E0BE01BE
:1004F000615F7F4FC8010E94620942E050E0BE0187
:10050000635F7F4FC8010E946209C8010E943909D8
:10051000C8010E943909C8010E943909C8010E9416
:10052000390942E050E0BE016F5E7F4FC8010E9472
:1005300062098F8598898115914029F48D859E8562
:100540008115914019F0812C912C16C089899A89C6
:100550008115944031F0C8010E94F20887EF9FEFA7
:1005600029C0B6016E5F7F4F44E050E0C8010E9491
:10057000620981E090E01EC089899A8998278927BD
:1005800098278816990638F4C8010E9439092FEF78
:10059000821A920AF1CF8FEFE81AF80AEA14FB04E4
:1005A00009F084CFC8010E94F20886EF9FEF02C0D5
:1005B0008DEF9FEF63960FB6F894DEBF0FBECDBFF1
:1005C000DF91CF911F910F91FF90EF90DF90CF902F
:1005D000BF90AF909F908F907F906F905F904F9063
:1005E00008958F929F92AF92BF92CF92DF92EF9237
:1005F000FF920F931F93CF93DF9300D000D000D0D2
:10060000CDB7DEB78C015B016A010E94A7004C01E7
:10061000009709F05DC0F8014281538164817581C2
:100620008091D4019091D501A091D601B091D701CC
:10063000481759076A077B0709F44EC00E943E1409
:100640007801F8E0EF0EF11C6F7077277C5FC7012F
:100650000E949809813009F043C088EB91E09A83A9
:100660008983F80182819381A481B5818B839C83E6
:10067000AD83BE8345E350E0BE016F5F7F4FC7018E
:100680000E941909892B19F4812C912C1DC0B501E8
:10069000C8010E94E500892BB9F3C7010E94210916
:1006A000892B91F333E0A32EB12CA60168E873E106
:1006B000C8010E948E014C01F1E0AF1AB10821F08F
:1006C0008F3F2FEF920789F3C7010E94040908C0EA
:1006D00088248394912C04C09EEF892E99249A94A7
:1006E000C40126960FB6F894DEBF0FBECDBFDF91D2
:1006F000CF911F910F91FF90EF90DF90CF90BF901F
:10070000AF909F908F90089520911402222399F02A
:100710003FB7F89420911402213059F42DB320935F
:1007200012024DB320911302209524232DBB3FBF0D
:1007300002C0309312028CBD9DBD089580911402B9
:10074000882361F09FB7F8942091140280911202DF
:10075000213019F48DBB9FBF08958FBF089544E0E9
:1007600050E0BC0181E090E00C94C00F44E050E008
:10077000BC0185E090E00C94C00F44E050E0BC0167
:100780008FE090E00C94C00F8F929F92AF92BF9237
:10079000CF92DF92EF92FF920F931F93CF93DF934D
:1007A00000D0CDB7DEB74C016A01590182E092E07A
:1007B00069837A830E94580F80E590E00E94840349
:1007C00046E050E069817A8189E090E00E94C00FA4
:1007D000C60102960E94BD03C80102960E94AF03A3
:1007E000C70102960E94B6030E949E03F501428152
:1007F000538164817581F4014283538364837583DB
:100800000F900F90DF91CF911F910F91FF90EF907C
:10081000DF90CF90BF90AF909F908F9008956F9290
:100820007F928F929F92AF92BF92CF92DF92EF9280
:10083000FF920F931F93CF93DF93CDB7DEB76E97E1
:100840000FB6F894DEBF0FBECDBF6C015B017A011D
:100850004901380100E02FEF4FEF6FEFCE014996CD
:100860000E94961728EB31E03A8329838B8D9C8D6B
:10087000AD8DBE8D8B839C83AD83BE8338872F83E4
:10088000F30182819381A481B58189879A87AB879F
:10089000BC873E872D87F40182819381A481B58135
:1008A0008F87988BA98BBA8B3C8B2B8BF70142815E
:1008B0005381648175814D8B5E8B6F8B788FCE01F8
:1008C00001967C018E01095F1F4F9E01235F3F4F00
:1008D000AE014D5E5F4FB501C6010E94C4036E9626
:1008E0000FB6F894DEBF0FBECDBFDF91CF911F9141
:1008F0000F91FF90EF90DF90CF90BF90AF909F90BF
:100900008F907F906F900895CF92DF92EF92FF9239
:100910000F931F93CF93DF93CDB7DEB768970FB6D2
:10092000F894DEBF0FBECDBF6B017901DA011296DC
:100930004D915D916D917C9115974D8B5E8B6F8B79
:10094000788FA8EBB1E0BA83A98321E0288F0D89C5
:100950001E892F89388D0B831C832D833E83B88796
:10096000AF83F701028113812481358109871A87BA
:100970002B873C87BE87AD874F87588B698B7A8BD7
:100980008E010F5F1F4F9E01295F3F4FAE01435FF6
:100990005F4FB6010E940F0468960FB6F894DEBF51
:1009A0000FBECDBFDF91CF911F910F91FF90EF90C0
:1009B000DF90CF9008950F931F93CF93DF93CDB720
:1009C000DEB762970FB6F894DEBF0FBECDBFDB0176
:1009D000FA0142815381648175814F87588B698BFD
:1009E0007A8BE8EBF1E0FA83E98321E02A8B0F852B
:1009F000188929893A890B831C832D833E83F887C4
:100A0000EF8349875A876B877C879E012F5F3F4F13
:100A1000AE01495F5F4FBD010E94840462960FB62C
:100A2000F894DEBF0FBECDBFDF91CF911F910F9124
:100A3000089528EB31E0FC0131832083FB014281E2
:100A4000538164817581FC01428353836483758380
:100A500008950F9300E020E040E060E088EE91E030
:100A60000E94961788ED91E00F910C948C1781E00D
:100A700086270895862F0895DC01ED91FC91048C62
:100A8000F58DE02D099591E089270895CF93DF93A7
:100A90001F92CDB7DEB76983DC01ED91FC91028036
:100AA000F381E02D41E050E0BE016F5F7F4F09957B
:100AB0000F90DF91CF91089521E0FC01848584306F
:100AC00009F420E0822F0895FC019485FB018485C0
:100AD000981303C081E0943009F480E008950F93E7
:100AE0001F93CF93DF93EC018A018C85843021F032
:100AF0000E94FA0C892B39F481E090E09B838A8371
:100B000080E090E001C0C801DF91CF911F910F916B
:100B10000895FC018485843011F00C94F10D80E07F
:100B200090E00895CF93DF931F92CDB7DEB741E0F9
:100B300050E0BE016F5F7F4FFC0184850E94910DE4
:100B4000181619061CF4898190E002C08FEF9FEF00
:100B50000F90DF91CF910895FC0184850C94910D45
:100B60000F931F93CF93DF931F92CDB7DEB78C0106
:100B7000DC01ED91FC910480F581E02D0995892B34
:100B800051F0BE016F5F7F4FF80184850E941C0EFB
:100B9000898190E002C08FEF9FEF0F90DF91CF919E
:100BA0001F910F910895FC0184850C944B0ECF92F8
:100BB000DF92EF92FF920F931F93CF93DF93CDB706
:100BC000DEB7AF970FB6F894DEBF0FBECDBF7C0186
:100BD0008B016A01CE0101960E948C17CE01099605
:100BE0000E94A50ACE018A960E948C1768ED71E0DA
:100BF000CE0184960E941905BE016C5D7F4FCE0127
:100C000001960E949A00AE01465D5F4FB801CE0189
:100C100001960E94F10281309105C1F4D701ED9156
:100C2000FC910484F585E02D88EB91E09DA38CA3D5
:100C30000CA51DA52EA53FA50EA31FA328A739A768
:100C4000A601BE016C5D7F4FC7010995AF960FB637
:100C5000F894DEBF0FBECDBFDF91CF911F910F91F2
:100C6000FF90EF90DF90CF900895FC0113821282E5
:100C700048EE53E060E070E04483558366837783F9
:100C80008CE191E09183808384E084870895FC0166
:100C9000262F1382128248EE53E060E070E0448316
:100CA0005583668377838CE191E0918380832487E9
:100CB0000895FC018485843011F00C94A40B80E02D
:100CC0000895DF92EF92FF920F931F93CF93DF93DC
:100CD000EC017B018A018C85843009F045C0D12C60
:100CE0008D2D0E94A40B811102C0DC8607C08B7F72
:100CF0008831D9F3D39484E0D812F2CF8C85843034
:100D000099F120910A0130910B012F5F3F4F11F4AF
:100D100020E030EC30930B0120930A0140910A014E
:100D200050910B0120E061E00E94F60BB7016E5F6D
:100D30007F4FA8018C850E947C0C811103C084E048
:100D40008C8712C0CE010E945906873151F061E0B4
:100D500070E080E090E00E946D14CE010E94590680
:100D6000ECCF81E090E002C080E090E0DF91CF9195
:100D70001F910F91FF90EF90DF900895CF92DF9237
:100D8000EF92FF92CF93DF93EC018C85843049F191
:100D90000E94D40C0E943E146B017C01CE010E9483
:100DA00059068823A1F061E070E080E090E00E94A5
:100DB0006D140E943E146C197D098E099F09683ECE
:100DC00073408105910550F38C850E94CC0BEC8516
:100DD000F0E0EE0FFF1FE052FE4F1182108284E020
:100DE0008C87DF91CF91FF90EF90DF90CF900895A7
:100DF000CF93DF93EC018C858430D1F0CE010E943B
:100E000059068431A9F0882399F0883189F08C3112
:100E100069F4E881F9810480F581E02DCE0109951E
:100E200021E0892B09F420E0822F03C081E001C07A
:100E300080E0DF91CF9108950F9300E020E040E043
:100E400060E08EEE91E00E9496170F910895CF9387
:100E5000DF931F92CDB7DEB76983DC01ED91FC9182
:100E60000280F381E02D41E050E0BE016F5F7F4FD3
:100E700009950F90DF91CF910895EF92FF920F9314
:100E80001F93CF93DF93CDB7DEB72D970FB6F894AE
:100E9000DEBF0FBECDBF7C0100E010E0602FCE01B1
:100EA00001960E944706CE0101960E9459068111C3
:100EB00016C0F7014481558120E061E0802F0E9437
:100EC000F60B802F0E944A0CF70184819581F8016E
:100ED000EE0FFF1FE052FE4F9183808305C00F5F2E
:100EE0001F4F04301105D1F62D960FB6F894DEBFD2
:100EF0000FBECDBFDF91CF911F910F91FF90EF906B
:100F00000895FC011382128280E491E09183808332
:100F1000758364830895BF92CF92DF92EF92FF9220
:100F20000F931F93CF93DF93CDB7DEB72D970FB6F7
:100F3000F894DEBF0FBECDBF8C0140EEC42E41E061
:100F4000D42EB12CE12CF12C6B2DCE0101960E94F8
:100F50004706D6012D913D916D01F801848195815F
:100F600028173907B1F4CE0101960E945906843141
:100F700069F0CE0101960E9459068C3151F4CE01E0
:100F800001960E948905892B99F003C0EE24E39411
:100F9000F12CB394F4E0BF12D7CFEF2871F4D8014D
:100FA000ED91FC910480F581E02DC801099505C003
:100FB000CE0101960E94BE06ECCF2D960FB6F89496
:100FC000DEBF0FBECDBFDF91CF911F910F91FF907C
:100FD000EF90DF90CF90BF9008957F928F929F9275
:100FE000AF92BF92CF92DF92EF92FF920F931F9337
:100FF000CF93DF93CDB7DEB72D970FB6F894DEBF52
:101000000FBECDBF6C015B014A010E948B0750EE01
:10101000E52E51E0F52E712C00E010E0672DCE0199
:1010200001960E944706F701219131917F01F60157
:10103000848195812817390731F4CE0101960E94E9
:1010400059068731C9F07394F4E07F12E7CFC801E5
:101050002D960FB6F894DEBF0FBECDBFDF91CF91B6
:101060001F910F91FF90EF90DF90CF90BF90AF90C6
:101070009F908F907F900895A401B501CE010196B5
:101080000E946F05080F191FDECFBF92CF92DF922B
:10109000EF92FF920F931F93CF93DF93CDB7DEB7FD
:1010A0002D970FB6F894DEBF0FBECDBF8C016B013C
:1010B000CB010E948B0760EEE62E61E0F62EB12C8C
:1010C0006B2DCE0101960E944706F70121913191C7
:1010D0007F01F601848195812817390751F5CE01EA
:1010E00001960E945906873111F08C3111F5CE011D
:1010F00001960E948905892BE1F08B819C81F80182
:10110000938382838D819E81AF81B885848395830B
:10111000A683B78349855A856B857C85408751872F
:10112000628773878CE191E0918380838D858487CA
:1011300008C0B394F4E0BF12C3CF64E0C8010E94BA
:101140004706C8012D960FB6F894DEBF0FBECDBF7F
:10115000DF91CF911F910F91FF90EF90DF90CF9093
:10116000BF9008950F9300E020E040E060E084EF3E
:1011700091E00E9496170F910895DC01ED91FC918A
:10118000008CF18DE02D099428EB31E0FC013183D6
:101190002083FB014089518962897389FC01428364
:1011A0005383648375830895FC0184899589089528
:1011B000FC01818D928D0895CF93DF931F92CDB75F
:1011C000DEB76983DC01ED91FC910280F381E02DB3
:1011D00041E050E0BE016F5F7F4F09950F90DF91B6
:1011E000CF910895CF93DF93EC01898D9A8D892B50
:1011F00041F0E881F9810680F781E02DCE01099563
:10120000F4CFDF91CF910895CF93DF93EC01888DD8
:10121000843061F00E94CC0BE88DF0E0EE0FFF1FF0
:10122000E052FE4F1182108284E0888FDF91CF91CF
:101230000895FC01178A168A6E5F7F4F808D0C948B
:10124000930EFC01808D0C94D90ECF93DF93EC01AB
:101250009A018E899F89AB01BC01888D0E944C0E3A
:101260002E893F89280F391F3F8B2E8BDF91CF911D
:1012700008950F931F93CF93DF931F92CDB7DEB7DF
:101280008C01FC01818D928D892B59F041E050E059
:10129000BE016F5F7F4F808D0E94910D1816190659
:1012A0001CF08FEF9FEF08C0F801818D928D0197A0
:1012B000928F818F898190E00F90DF91CF911F9164
:1012C0000F910895CF93DF93EC01898D9A8D00974C
:1012D00019F48FEF9FEF10C04817590708F0AC01C1
:1012E000888D0E94910D181619069CF7298D3A8D4C
:1012F000281B390B3A8F298FDF91CF910895CF9317
:10130000DF931F92CDB7DEB7FC01218D328D232BE9
:1013100049F0BE016F5F7F4F808D0E941C0E898156
:1013200090E002C08FEF9FEF0F90DF91CF91089573
:10133000FF920F931F93CF93DF93EC018B01888D66
:101340008430E1F4F12C8F2D0E94A40B811102C096
:10135000F88E06C08831E1F3F39484E0F812F3CFFD
:10136000888D843059F01D870C871A8E198E20E0E5
:10137000A80162E00E94F60B81E001C080E0DF91ED
:10138000CF911F910F91FF9008950F931F93CF93CB
:10139000DF93CDB7DEB728970FB6F894DEBF0FBE48
:1013A000CDBF8C01DC01ED91FC910284F385E02D31
:1013B0000995F801808D0E94F10D1816190644F563
:1013C00048E050E0BE016F5F7F4FD80158968C9186
:1013D0000E94910D18161906ECF4BE016F5F7F4F45
:1013E000C8010E960E94A2178D8190E0982F882741
:1013F0002E81820F911DF801958B848B8F8190E057
:10140000982F88272885820F911D928F818F02C087
:1014100080E090E028960FB6F894DEBF0FBECDBFF7
:10142000DF91CF911F910F9108958F929F92AF926C
:10143000BF92CF92DF92EF92FF920F931F93CF93C1
:10144000DF9300D000D000D0CDB7DEB78C017B0198
:101450004A01FC01808D843009F063C073E0A72E3F
:1014600074E0B72EC12CD12CC5010E94EF0F811161
:1014700003C0F801C08E0AC08831D9F3FFEFCF1A3C
:10148000DF0AB394E4E0CE16D10471F7F801808D41
:10149000843009F446C096E0E2E1F1E0DE01119605
:1014A00001900D929A95E1F7F70193819F779C83C4
:1014B00094819D8395819E83B7016E5F7F4F90E0FD
:1014C000982F882744E050E0845F9B4F0E94C00F14
:1014D000F801808D90E00496F82EEE24692DC70166
:1014E00040960E94360F682DC70141960E94360F24
:1014F000F801808D90E0982F882746E050E0BE01EB
:101500006F5F7F4F8A5F9B4F0E94C00FF801128E62
:10151000118E20E8A40162E0808D0E94F60B81E02C
:1015200001C080E026960FB6F894DEBF0FBECDBF97
:10153000DF91CF911F910F91FF90EF90DF90CF90AF
:10154000BF90AF909F908F900895CF93DF93EC0161
:101550001B821A8248EE53E060E070E04C835D83AA
:101560006E837F838AE491E099838883CE010E960F
:101570000E948C1784E0888FDF91CF910895CF92DD
:10158000DF92EF92FF920F931F93CF93DF93CDB72C
:10159000DEB7AF970FB6F894DEBF0FBECDBF7C01AC
:1015A0008B016A01CE0101960E948C17CE0109962B
:1015B0000E94A50ACE018A960E948C1768ED71E000
:1015C000CE0184960E941905BE016C5D7F4FCE014D
:1015D00001960E949A00AE01465D5F4FB801CE01B0
:1015E00001960E94F10281309105C1F4D701ED917D
:1015F000FC910088F189E02D88EB91E09DA38CA3FC
:101600000CA51DA52EA53FA50EA31FA328A739A78E
:10161000A601BE016C5D7F4FC7010995AF960FB65D
:10162000F894DEBF0FBECDBFDF91CF911F910F9118
:10163000FF90EF90DF90CF9008950F9300E020E0AF
:1016400040E060E08AEF91E00E9496170F910895C4
:10165000CF92DF92EF92FF920F9330E0C12CF2E134
:10166000DF2EFAE7EF2EF12C4C155D056E057F0598
:1016700040F4F694E794D794C7943F5F3630A1F7CF
:1016800037E041E04327211102C050E701C050E597
:10169000242F30E03595279523700C70202B252BB7
:1016A000FC012083417041830F91FF90EF90DF9008
:1016B000CF90089590E0982F882744E050E0845F11
:1016C0009B4F0C94C00F282F30E02C5F3F4F922F80
:1016D0008827860F971F0C94EF0F62E070E00C9440
:1016E000630BFB01282F30E02C5F3F4F922F8827A0
:1016F000642F8E0F9F1F0C94360FCF93DF93C82F4C
:10170000D62F472F64E070E00E94710B4D2F65E0EB
:1017100070E08C2FDF91CF910C94710B462F62E01B
:1017200070E00C94710BCF93DF93C82FD62F472F07
:1017300060E170E00E94710B4D2F61E170E08C2F31
:10174000DF91CF910C94710B0F931F93CF93DF9385
:1017500000D01F92CDB7DEB7182F00E021E040E0A7
:1017600059E06DE370E0CE0101960E94280B89815B
:101770009A810E94840363E070E0812F0E94630BD2
:101780008B830E949E038B810F900F900F90DF91AF
:10179000CF911F910F9108950F931F93CF93DF93D4
:1017A00000D0CDB7DEB7182F00E021E040E059E0CF
:1017B0006DE370E0CE0101960E94280B89819A8129
:1017C0000E94840340E150E0612F82E092E00E9499
:1017D000B9116FEF812F0E948E0B0E949E030F9014
:1017E0000F90DF91CF911F910F910895CF92DF92CB
:1017F000EF92FF920F931F93CF93DF9300D0CDB75B
:10180000DEB7182FD62E7A01C22E8FEF860F8530C5
:10181000A8F5812F0E94CC0B00E021E040E059E0C8
:101820006DE370E0CE0101960E94280B89819A81B8
:101830000E9484034D2D4C2960E070E0812F0E94AE
:10184000710BE114F10411F0B7010AC060910002BC
:10185000709101026F5F7F4F7093010260930002ED
:10186000812F0E947D0B41E050E0612F82E092E0E9
:101870000E94B9110E949E0381E001C080E00F9098
:101880000F90DF91CF911F910F91FF90EF90DF901C
:10189000CF9008950F931F93CF93DF9300D0CDB7D0
:1018A000DEB7182F00E021E040E059E06DE370E082
:1018B000CE0101960E94280B89819A810E9484039F
:1018C00063E070E0812F0E94630B833121F00E945E
:1018D0009E0380E00AC042E050E0612F82E092E087
:1018E0000E94B9110E949E0381E00F900F90DF913A
:1018F000CF911F910F910895CF92DF92EF92FF92B7
:101900000F931F93CF93DF9300D0CDB7DEB7182F7F
:101910007B016A01FB0180818F3F51F481818F3F00
:1019200099F482818F3F81F483818F3F69F430C0C5
:1019300081110AC0FB018181811106C08281811160
:1019400003C08381882321F1C114D10409F100E08F
:1019500021E040E059E06DE370E0CE0101960E9485
:10196000280B89819A810E948403B701812F0E94EC
:101970005A0BB601812F0E94930B44E050E0612F77
:1019800082E092E00E94B9110E949E0381E001C0B2
:1019900080E00F900F90DF91CF911F910F91FF90FA
:1019A000EF90DF90CF9008950F931F93CF93DF9325
:1019B00000D0CDB7DEB7182F00E021E040E059E0BD
:1019C0006DE370E0CE0101960E94280B89819A8117
:1019D0000E94840348E050E0612F82E092E00E9480
:1019E000B9110E949E030F900F90DF91CF911F912C
:1019F0000F910895BF92CF92DF92EF92FF920F93D3
:101A00001F93CF93DF9300D01F92CDB7DEB7B82ED0
:101A10006B017A01413088E0580718F0E12C98E01A
:101A2000F92E00E021E040E059E06DE370E0CE01E6
:101A300001960E94280B89819A810E9484036B2D54
:101A400082E092E00E9427108C0163E070E08B2D11
:101A50000E94630B8B830E949E038B81873111F060
:101A60008C3131F40E94F3130E151F05D0F202C021
:101A7000E12CF12C00E021E040E059E06DE370E062
:101A8000CE0101960E94280B89819A810E948403CD
:101A90009701A6016B2D82E092E00E94E61040E2E1
:101AA00050E06B2D82E092E00E94B9118B2D0E94D4
:101AB0006D0B84FD22C063E070E08B2D0E94630BF0
:101AC000811108C00E949E038B2D0E94CC0B80E0E8
:101AD00090E01AC00E949E030E94F31300E021E0F0
:101AE00040E059E06DE370E0CE0101960E94280BC2
:101AF00089819A810E948403D9CF60E18B2D0E9455
:101B00008E0B0E949E03C7010F900F900F90DF91E4
:101B1000CF911F910F91FF90EF90DF90CF90BF90EA
:101B20000895AF92BF92CF92DF92EF92FF920F9300
:101B30001F93CF93DF9300D0CDB7DEB7182F5B0193
:101B40006A0100E021E040E059E06DE370E0CE0181
:101B500001960E94280B89819A810E948403612F3B
:101B600082E092E00E945B107C010097A1F463E0A8
:101B700070E0812F0E94630B843119F1882309F1F1
:101B800021E030E08C3111F420E030E0EE24FF243D
:101B9000E21AF30A16C0C816D9060CF476011E1410
:101BA0001F047CF400E09701A501612F82E092E020
:101BB0000E94691140E450E0612F82E092E00E94AF
:101BC000B9110E949E03C7010F900F90DF91CF9132
:101BD0001F910F91FF90EF90DF90CF90BF90AF904B
:101BE00008950F931F93CF93DF9300D000D0CDB70C
:101BF000DEB7182F00E021E040E059E06DE370E02F
:101C0000CE0101960E94280B89819A810E9484034B
:101C1000612F82E092E00E945B108B839C830E9484
:101C20009E038B819C810F900F900F900F90DF91FE
:101C3000CF911F910F910895EF92FF920F931F93F1
:101C4000CF93DF9300D0CDB7DEB7182F7B0100E034
:101C500021E040E059E06DE370E0CE0101960E9482
:101C6000280B89819A810E94840301E021E030E001
:101C7000A701612F82E092E00E9469110E949E03F9
:101C800081E090E00F900F90DF91CF911F910F9125
:101C9000FF90EF90089508959F92AF92BF92CF92D8
:101CA000DF92EF92FF920F931F93CF93DF9300D0B9
:101CB000CDB7DEB7982E6B015A01790100E021E023
:101CC00040E059E06DE370E0CE0101960E94280BE0
:101CD00089819A810E948403692D82E092E00E94AA
:101CE00027108E159F0530F4692D82E092E00E9446
:101CF00027107C0187019501A601692D82E092E001
:101D00000E9477100E949E03C7010F900F90DF91F1
:101D1000CF911F910F91FF90EF90DF90CF90BF90E8
:101D2000AF909F900895CF92DF92EF92FF920F9322
:101D30001F93CF93DF9300D0CDB7DEB7182F7B0171
:101D40006A01FB018081811109C08181811106C076
:101D50008281811103C083818823F1F0C114D104F1
:101D6000D9F000E021E040E059E06DE370E0CE0101
:101D700001960E94280B89819A810E948403B701F1
:101D8000812F0E945A0BB601812F0E94930B0E9453
:101D90009E0381E090E002C080E090E00F900F9001
:101DA000DF91CF911F910F91FF90EF90DF90CF9037
:101DB00008950F931F93CF93DF9300D0CDB7DEB775
:101DC000182F00E021E040E059E06DE370E0CE0123
:101DD00001960E94280B89819A810E94840340E227
:101DE00050E0612F82E092E00E94B911812F0E94A1
:101DF0006D0B84FD21C0812F0E946D0B83FF09C0F4
:101E000068E1812F0E948E0B0E949E0380E090E08B
:101E10001BC00E949E030E94F31300E021E040E0FB
:101E200059E06DE370E0CE0101960E94280B898194
:101E30009A810E948403DACF60E1812F0E948E0B89
:101E40000E949E0381E090E00F900F90DF91CF9170
:101E50001F910F9108958EBD00000DB407FEFDCFB8
:101E60008EB508952A9808952A9A08951F93CF93BE
:101E7000DF9300D0CDB7DEB7182F6A8399830E9415
:101E8000320F80EF0E942B0F9981892F0E942B0F18
:101E9000812F0E942B0F6A81862F0E942B0F0E9498
:101EA000340F81E00F900F90DF91CF911F91089533
:101EB000CF93DF93EC016CE271E080E090E00E9450
:101EC0006D140E94C911229A80911402882399F0FE
:101ED0009FB7F89480911402813059F48DB38093A8
:101EE00012022DB380911302809582238DBB9FBF78
:101EF00002C09093120280E58CBD1DBC60E880E0BA
:101F000090E00E94360F65E58BE190E00E94360F6D
:101F100065E58AE190E00E94360F809114028823E3
:101F200061F09FB7F8942091140280911202213041
:101F300019F48DBB9FBF01C08FBF80E090E49983EF
:101F4000888380E090E69987888780E098E49B8387
:101F50008A8380E098E69B878A8780E090E59D836E
:101F60008C8380E090E79D878C8780E098E59F8355
:101F70008E8380E098E79F878E87DF91CF910895C9
:101F8000CF92DF92EF92FF920F931F93CF93DF9345
:101F9000EC017A018B016C01C40ED51ECC15DD0558
:101FA000A1F00E94320F80EF0E942B0F8D2F0E9414
:101FB0002B0F8C2F0E942B0F2196F80181918F01FE
:101FC0000E942B0F0E94340FE9CFC701DF91CF9100
:101FD0001F910F91FF90EF90DF90CF9008951F9386
:101FE000CF93DF931F92CDB7DEB7182F99830E944E
:101FF000320F8FE00E942B0F9981892F0E942B0FA7
:10200000812F0E942B0F80E00E942B0F89830E945A
:10201000340F89810F90DF91CF911F9108951F9305
:10202000CF93DF93182F60E270E00E94630BC82FFC
:10203000D0E061E270E0812F0E94630BDC2FCC279F
:102040009E01282BC901DF91CF911F910895FF9226
:102050000F931F93CF93DF93F62EC0E0D0E08F2D28
:102060000E940F108C01009721F08F2D0E940F10FD
:10207000EC01C017D10799F7CE01DF91CF911F91E5
:102080000F91FF9008951F93CF93DF93182F66E26F
:1020900070E00E94630BC82FD0E067E270E0812FF0
:1020A0000E94630BDC2FCC279E01282BC901DF91F6
:1020B000CF911F910895FF920F931F93CF93DF93BA
:1020C000F62EC0E0D0E08F2D0E9443108C010097C7
:1020D00021F08F2D0E944310EC01C017D10799F712
:1020E000CE01DF91CF911F910F91FF9008956F92D4
:1020F0007F929F92AF92BF92CF92DF92EF92FF9228
:102100000F931F93CF93DF931F92CDB7DEB7D82ED7
:10211000962E3A01590164E270E0892D99830E945C
:10212000630BE82EF12C65E270E0892D0E94630BB1
:10213000FE2CEE24E82AE60CF71C970137706D2C74
:102140009981792E690C711C690C711CD301ED9178
:10215000FC91E20FF31FC901800F911F813098405D
:10216000A0F0C12C48E0D42EC21AD30AA601B501B2
:10217000CF010E94C00FA8014C195D09B5016C0D7B
:102180007D1DF3018081918103C0A801B501CF01BC
:102190000E94C00FE00EF11E4F2D64E270E0892D09
:1021A0000E94710B4E2D65E270E0892D0F90DF913A
:1021B000CF911F910F91FF90EF90DF90CF90BF9044
:1021C000AF909F907F906F900C94710B0F931F9323
:1021D00089019A0140E050E00E9477101F910F9111
:1021E0000895CF92DF92EF92FF920F931F93CF93B8
:1021F000DF93EC017A018B016C01C40ED51ECC1566
:10220000DD05A9F00E94320F8FE00E942B0F8D2F69
:102210000E942B0F8C2F0E942B0F219680E00E9492
:102220002B0FF80181938F010E94340FE8CFC70173
:10223000DF91CF911F910F91FF90EF90DF90CF90A2
:102240000895AF92BF92CF92DF92EF92FF920F93D9
:102250001F93CF93DF9300D0CDB7DEB75A83498366
:102260005901E981FA81F7707C01E60EF11CE60E56
:10227000F11CD70118968D919C9119978E0F9F1F75
:1022800098012E0F3F1F2130384098F0C12C68E094
:10229000D62ECE1ADF0AA601B5010E94F110A801C0
:1022A0004C195D09B5016C0D7D1DF7018085918587
:1022B00002C0A801B5010F900F90DF91CF911F913F
:1022C0000F91FF90EF90DF90CF90BF90AF900C9464
:1022D000F1108F929F92AF92BF92CF92DF92EF92C6
:1022E000FF920F931F93CF93DF936C01962E5A01A9
:1022F0007901802E68E270E0892D0E94630BC82F5F
:10230000D0E069E270E0892D0E94630BDC2FCC27BE
:10231000C82B87019501AE01692DC6010E942111CC
:1023200081101AC0CE0DDF1D4D2F68E270E0892D9F
:102330000E94710B4C2F69E270E0892DDF91CF91E3
:102340001F910F91FF90EF90DF90CF90BF90AF90D3
:102350009F908F900C94710BDF91CF911F910F91F3
:10236000FF90EF90DF90CF90BF90AF909F908F90B5
:102370000895CF93C62F61E070E08C2F0E94710BFF
:1023800061E070E08C2F0E94630B8111F9CFCF9137
:102390000895CF93CFB7F89480911502811127C08B
:1023A000EAE9F0E08491E6E8F0E09491E82FF0E0CB
:1023B000EE0FFF1FE255FF4FA591B4918C91892339
:1023C00021F461E08AE00E94321561E08AE00E9417
:1023D000F9148CB580618CBD8CB580648CBD61E0D6
:1023E0008DE00E94F91461E08BE00E94F914809165
:1023F00015028F5F80931502CFBFCF910895CF93C1
:10240000DF93EC016CE671E00E949719882371F06C
:1024100061E089E00E9432156CED75E080E090E0AB
:102420000E946D1460E089E00E9432156EE671E052
:10243000CE010E949719882381F061E088E00E9414
:1024400032156CED75E080E090E00E946D1460E064
:1024500088E0DF91CF910C943215DF91CF910895F0
:10246000CF93DF9300D000D000D0CDB7DEB761E0CE
:1024700088E00E94F91461E089E00E94F91488EB79
:1024800091E09A83898380913F0290914002A091CC
:102490004102B09142028B839C83AD83BE83AE0127
:1024A0004F5F5F4F6CE071E088ED91E00E94DB04CC
:1024B00026E040E659E060E070E082E592E00E94AC
:1024C0004B1668EE73E080E090E00E946D1461E0CE
:1024D00082E00E94F91460E082E00E9432152696A4
:1024E0000FB6F894DEBF0FBECDBFDF91CF91089538
:1024F0000F9300E020E040E060E083E492E00E947F
:10250000961701EB21E048EA60EC8DE392E00E942F
:10251000961707E021E048EA60EC87E392E00E942A
:1025200096178AE292E00E9435066FED7BE384E223
:1025300092E00F910C9481070F931F93CF93DF9339
:1025400000D000D000D0CDB7DEB78C0164E670E0DB
:1025500080E090E00E946D1488EB91E09A8389837B
:102560004091390250913A0260913B0270913C02D5
:102570004B835C836D837E834EED5BE3BE016F5FB7
:102580007F4F8AE292E00E946106892BF9F060E7B2
:1025900071E082E592E00E9435186AE771E0CE01B1
:1025A00001960E942219B801CE0101960E94841959
:1025B000BC018AE292E00E940A18CE0101960E94B4
:1025C000B4188AE292E00E94BE0606C061E871E09B
:1025D00082E592E00E94351826960FB6F894DEBF89
:1025E0000FBECDBFDF91CF911F910F910895CF9274
:1025F000DF92EF92FF920F931F93CF93DF93CDB7AC
:10260000DEB7C959D1090FB6F894DEBF0FBECDBFF2
:1026100082E592E00E946815181619062CF482E5EE
:1026200092E00E948115F4CF64E272E0CE018F57F0
:102630009F4F0E944508CE018F579F4F0E945C0517
:10264000882309F44CC063E971E082E592E00E94BE
:10265000351864EF71E080E090E00E946D148E0107
:102660000F5F1F4F78016801CE18DF08CE018F572A
:102670009F4F0E948905181619064CF4CE018F57FA
:102680009F4F0E949205F80181938F01ECCFF701D3
:10269000EC0DFD1D1082B701CE018C569F4F0E949C
:1026A0002219BE016C567F4F82E592E00E942318EA
:1026B000BE016C567F4FCE0182579F4F0E944F192B
:1026C000CE0182579F4F0E94FF11CE0182579F4F2C
:1026D0000E94B418CE018C569F4F0E94B41882E518
:1026E00092E00E946815181619060CF06CC082E57D
:1026F00092E00E94811590932302809322020A9710
:1027000009F061C010921702109216028091160211
:10271000909117020A9794F482E592E00E9468155E
:10272000181619069CF782E592E00E948115909395
:102730002302809322028A309105A9F48091160227
:10274000909117020A9709F568E172E0CE010196AF
:102750000E942219CE0101960E949C12CE01019680
:102760000E94B41812C08D30910541F320911602D9
:1027700030911702F901E85EFD4F80832F5F3F4FD4
:102780003093170220931602C1CF82E592E00E9497
:102790006815181619062CF482E592E00E9481153E
:1027A000F4CF109217021092160261E082E00E94AC
:1027B00032156CED75E080E090E00E946D1460E0F1
:1027C00082E00E943215C756DF4F0FB6F894DEBF85
:1027D0000FBECDBFDF91CF911F910F91FF90EF9072
:1027E000DF90CF90089508951F920F920FB60F9229
:1027F00011242F933F938F939F93AF93BF93809117
:102800004A0290914B02A0914C02B0914D0230913E
:10281000490223E0230F2D3720F40196A11DB11D9D
:1028200005C026E8230F0296A11DB11D2093490281
:1028300080934A0290934B02A0934C02B0934D02B6
:1028400080914E0290914F02A0915002B09151029E
:102850000196A11DB11D80934E0290934F02A0934B
:102860005002B0935102BF91AF919F918F913F91D0
:102870002F910F900FBE0F901F9018952FB7F894BF
:1028800060914A0270914B0280914C0290914D02EE
:102890002FBF08953FB7F89480914E0290914F0258
:1028A000A0915002B091510226B5A89B05C02F3FC0
:1028B00019F00196A11DB11D3FBF6627782F892F02
:1028C0009A2F620F711D811D911D42E0660F771FC7
:1028D000881F991F4A95D1F70895CF92DF92EF9202
:1028E000FF92CF93DF936B017C010E944A14EB01AE
:1028F000C114D104E104F10489F00E94F3130E9491
:102900004A146C1B7D0B683E734090F381E0C81A3B
:10291000D108E108F108C851DC4FEACFDF91CF912F
:10292000FF90EF90DF90CF900895789484B5826007
:1029300084BD84B5816084BD85B5826085BD85B563
:10294000816085BDEEE6F0E0808181608083E1E812
:10295000F0E010828081826080838081816080834A
:10296000E0E8F0E0808181608083E1EBF0E080814D
:1029700084608083E0EBF0E0808181608083EAE71F
:10298000F0E08081846080838081826080838081A8
:10299000816080838081806880831092C100089567
:1029A000833081F028F4813099F08230A1F00895CD
:1029B0008730A9F08830B9F08430D1F4809180005C
:1029C0008F7D03C0809180008F7780938000089571
:1029D00084B58F7702C084B58F7D84BD08958091C2
:1029E000B0008F7703C08091B0008F7D8093B000DE
:1029F0000895CF93DF9390E0FC01E458FF4F2491BA
:102A0000FC01E057FF4F8491882349F190E0880F43
:102A1000991FFC01E255FF4FA591B4918C559F4F32
:102A2000FC01C591D4919FB7611108C0F8948C91B5
:102A3000209582238C93888182230AC0623051F4CE
:102A4000F8948C91322F309583238C938881822B3C
:102A5000888304C0F8948C91822B8C939FBFDF9164
:102A6000CF9108950F931F93CF93DF931F92CDB70C
:102A7000DEB7282F30E0F901E859FF4F8491F901C2
:102A8000E458FF4F1491F901E057FF4F04910023E0
:102A9000C9F0882321F069830E94D0146981E02F56
:102AA000F0E0EE0FFF1FEC55FF4FA591B4919FB7DB
:102AB000F8948C91611103C01095812301C0812B82
:102AC0008C939FBF0F90DF91CF911F910F9108952D
:102AD000FC01818D228D90E0805C9F4F821B9109CB
:102AE0008F7399270895FC01918D828D981731F08D
:102AF000828DE80FF11D858D90E008958FEF9FEF97
:102B00000895FC01918D828D981761F0828DDF010F
:102B1000A80FB11D5D968C91928D9F5F9F73928FD0
:102B200090E008958FEF9FEF089585E097E1892B5E
:102B300049F080E090E0892B29F00E94051781116F
:102B40000C9400000895FC01848DDF01A80FB11DD5
:102B5000A35ABF4F2C91848D90E001968F739927D3
:102B6000848FA689B7892C93A089B1898C918064C0
:102B70008C93938D848D981306C00288F389E02D81
:102B800080818F7D80830895CF93DF93EC01888DC2
:102B90008823C9F0EA89FB89808185FD05C0A88961
:102BA000B9898C9186FD0FC00FB607FCF5CF8081E7
:102BB00085FFF2CFA889B9898C9185FFEDCFCE0131
:102BC0000E94A315E7CFDF91CF910895CF92DF92B6
:102BD000FF920F931F93CF93DF931F92CDB7DEB772
:102BE0006C0181E0D60158968C9358975B969C9126
:102BF0005B975C968C915C97981307C05096ED910B
:102C0000FC915197808185FD2EC0F601038D10E067
:102C10000F5F1F4F0F731127F02EF601848DF812EE
:102C200011C00FB607FCF9CFD6015096ED91FC917B
:102C30005197808185FFF1CFC60169830E94A3155A
:102C40006981EBCF838DE80FF11DE35AFF4F60835D
:102C5000D6015B960C935B975296ED91FC9153973E
:102C6000808180620CC0D6015696ED91FC915797F9
:102C700060835096ED91FC915197808180648083B0
:102C800081E090E00F90DF91CF911F910F91FF9025
:102C9000DF90CF900895BF92CF92DF92EF92FF9294
:102CA000CF93DF93EC016A017B01B22EE889F989A9
:102CB00082E08083411581EE580761057105A1F01E
:102CC00060E079E08DE390E0A70196010E94B619DB
:102CD0002150310941095109569547953795279556
:102CE000211580E1380798F0E889F989108260E8B9
:102CF00074E88EE190E0A70196010E94B619215078
:102D00003109410951095695479537952795EC8525
:102D1000FD853083EE85FF852083188EEC89FD8943
:102D2000B082EA89FB89808180618083EA89FB899E
:102D3000808188608083EA89FB89808180688083C4
:102D4000EA89FB8980818F7D8083DF91CF91FF901D
:102D5000EF90DF90CF90BF9008951F920F920FB623
:102D60000F9211242F938F939F93EF93FF93E091F2
:102D70006202F09163028081E0916802F091690241
:102D800082FD12C0908180916B028F5F8F732091C2
:102D90006C02821751F0E0916B02F0E0EE5AFD4FA9
:102DA000958F80936B0201C08081FF91EF919F917D
:102DB0008F912F910F900FBE0F901F9018951F921B
:102DC0000F920FB60F9211242F933F934F935F935F
:102DD0006F937F938F939F93AF93BF93EF93FF93E3
:102DE00082E592E00E94A315FF91EF91BF91AF9110
:102DF0009F918F917F916F915F914F913F912F9113
:102E00000F900FBE0F901F90189582E592E00E94E0
:102E1000681521E0892B09F420E0822F0895109293
:102E200055021092540288EE93E0A0E0B0E0809347
:102E3000560290935702A0935802B093590288EA21
:102E400091E0909353028093520285EC90E090932E
:102E50005F0280935E0284EC90E090936102809325
:102E6000600280EC90E0909363028093620281ECB8
:102E700090E0909365028093640282EC90E09093DE
:102E800067028093660286EC90E0909369028093DB
:102E9000680210926B0210926C0210926D021092F6
:102EA0006E020895AF92BF92CF92DF92EF92FF929F
:102EB0000F931F93CF93DF936C017B01C0E0D0E0B1
:102EC00000E010E0F601EC0FFD1F4AE050E06281E7
:102ED000C7010E94AD185C016EE2C7010E9418187C
:102EE0008A0D9B1D080F191F2196C330D10551F77C
:102EF0004AE050E0F6016581C7010E94AD18800FDD
:102F0000911FDF91CF911F910F91FF90EF90DF9074
:102F1000CF90BF90AF90089528EB31E0FC01318352
:102F20002083128213821482158208950F93FC016C
:102F300088EB91E0918380836283438324830583BC
:102F40000F910895FB014081518162817381FC01E1
:102F50004283538364837583089588EB91E0909353
:102F6000F0028093EF021092F1021092F20210929E
:102F7000F3021092F402089508950E9495140E949D
:102F8000BC170E943012C5E9D5E10E94F7122097C4
:102F9000E1F30E949515F9CFCF92DF92EF92FF9265
:102FA0000F931F93CF93DF937C016A01EB0100E045
:102FB00010E00C151D0571F06991D701ED91FC91A0
:102FC0000190F081E02DC7010995892B19F00F5F61
:102FD0001F4FEFCFC801DF91CF911F910F91FF904D
:102FE000EF90DF90CF9008956115710581F0DB01BE
:102FF0000D900020E9F7AD0141505109461B570BD8
:10300000DC01ED91FC910280F381E02D099480E0D8
:1030100090E00895DC01ED91FC91DB0114964D9157
:103020005C9115976D917C910280F381E02D09945C
:10303000DC01ED91FC910190F081E02D09946AEBA7
:1030400071E00C94F4170F931F93CF93DF93EC016F
:103050000E940A188C01CE010E941F18800F911F38
:10306000DF91CF911F910F9108950F931F93CF93ED
:10307000DF93EC010E94F4178C01CE010E941F180F
:10308000800F911FDF91CF911F910F9108958F9223
:103090009F92AF92BF92CF92DF92EF92FF920F93E7
:1030A0001F93CF93DF93CDB7DEB7A1970FB6F894F8
:1030B000DEBF0FBECDBF7C01C42EE52FCB01D22ECB
:1030C00019A221E02D1510F02AE0D22E8E010F5DFD
:1030D0001F4F8D2C912CA12CB12C6C2D7E2FA50176
:1030E00094010E94B6198C2DD29E80191124015092
:1030F00011098A3014F4805D01C0895CF801808375
:10310000211531054105510521F0C22EE32FCA01D9
:10311000E4CFB801C7010E94F417A1960FB6F89446
:10312000DEBF0FBECDBFDF91CF911F910F91FF90FA
:10313000EF90DF90CF90BF90AF909F908F900895C9
:103140002115310541F4DC01ED91FC910190F081F4
:10315000E02D642F09940C9447189A01462F50E0F3
:1031600060E070E00C94A018FC01808191810C94C7
:10317000761ACF93DF93EC0188819981009711F043
:103180000E94761A198218821D821C821B821A8262
:10319000DF91CF9108950F931F93CF93DF93EC01AD
:1031A0008B016F5F7F4F888199810E94051B00977B
:1031B00031F0998388831B830A8381E001C080E01A
:1031C000DF91CF911F910F910895CF93DF93EC0181
:1031D00088819981892B29F08A819B81861797079D
:1031E00060F4CE010E94CB18882341F08C819D8130
:1031F000892B19F4E881F981108281E0DF91CF9168
:103200000895EF92FF920F931F93CF93DF93EC01FA
:103210007B018A01BA010E94E518811104C0CE0128
:103220000E94B91807C01D830C83B701888199815A
:103230000E94E11BCE01DF91CF911F910F91FF9072
:10324000EF900895FC011182108213821282158280
:1032500014826115710559F0FB0101900020E9F716
:10326000AF0141505109461B570B0C9401190895A9
:10327000CF93DF93EC01FB018617970761F0608124
:1032800071816115710529F0448155810E940119F0
:1032900002C00E94B918CE01DF91CF910895FC01C0
:1032A0001182108213821282158214820C943819B2
:1032B000EF92FF920F931F93CF93DF93EC017B016B
:1032C0000C811D816115710511F480E016C0411556
:1032D000510591F0040F151FB8010E94E5188823CD
:1032E000A1F3288139818C819D81B701820F931FC1
:1032F0000E94E11B1D830C8381E0DF91CF911F9120
:103300000F91FF90EF900895CF93DF93EC01FB01B5
:1033100044815581608171810E945819811103C0D7
:10332000CE010E94B918CE01DF91CF910895FC0122
:1033300024813581232B31F421E061157105A1F041
:10334000FB0108C0FC01808191816115710531F498
:1033500021E0FC018081882339F005C00E94D81B40
:1033600021E0892B09F020E0822F0895A1E21A2E96
:10337000AA1BBB1BFD010DC0AA1FBB1FEE1FFF1F19
:10338000A217B307E407F50720F0A21BB30BE40B69
:10339000F50B661F771F881F991F1A9469F76095B0
:1033A0007095809590959B01AC01BD01CF0108956A
:1033B000EE0FFF1F0590F491E02D0994CF93DF935A
:1033C0008230910510F482E090E0E091F702F091F4
:1033D000F80220E030E0A0E0B0E0309739F1408121
:1033E000518148175907B8F04817590771F482817D
:1033F0009381109729F013969C938E9312972CC06B
:103400009093F8028093F70227C02115310531F01F
:103410004217530718F0A901DB0101C0EF019A011F
:10342000BD01DF010280F381E02DD7CF21153105E9
:10343000F9F0281B390B2430310580F48A819B81F7
:103440006115710521F0FB019383828304C0909381
:10345000F8028093F702FE01329644C0FE01E20FAB
:10346000F31F8193919322503109398328833AC005
:103470002091F5023091F602232B41F420910201B4
:10348000309103013093F6022093F5022091000160
:10349000309101012115310541F42DB73EB740911E
:1034A000040150910501241B350BE091F502F091C8
:1034B000F602E217F307A0F42E1B3F0B281739077B
:1034C00078F0AC014E5F5F4F2417350748F04E0F80
:1034D0005F1F5093F6024093F5028193919302C0CF
:1034E000E0E0F0E0CF01DF91CF910895CF93DF933B
:1034F000009709F487C0FC01329713821282C091B1
:10350000F702D091F802209781F420813181280FB1
:10351000391F8091F5029091F6028217930779F591
:10352000F093F602E093F5026DC0DE0120E030E09A
:10353000AE17BF0750F412964D915C9113979D0101
:103540004115510509F1DA01F3CFB383A28340811C
:103550005181840F951F8A179B0771F48D919C915F
:103560001197840F951F02969183808312968D91F7
:103570009C911397938382832115310529F4F0934D
:10358000F802E093F7023EC0D9011396FC93EE9344
:1035900012974D915D91A40FB51FEA17FB0779F4BF
:1035A00080819181840F951F0296D90111969C9379
:1035B0008E938281938113969C938E931297E0E071
:1035C000F0E08A819B81009719F0FE01EC01F9CFB0
:1035D000CE01029628813981820F931F2091F50236
:1035E0003091F6022817390769F4309729F41092C0
:1035F000F8021092F70202C013821282D093F602F0
:10360000C093F502DF91CF910895A0E0B0E0EBE028
:10361000FBE10C94EC1BEC01CB01209719F40E9408
:10362000DE19B8C0FE01E60FF71F9E0122503109D6
:10363000E217F30708F4ACC0D9010D911C91119762
:1036400006171707B8F00530110508F49FC0A80148
:10365000445051094617570708F498C00250110901
:10366000061B170B019311936D937C93CF010E945E
:10367000761A8CC05B01A01AB10A4E01800E911E11
:10368000A091F702B091F802612C712C60E070E01B
:10369000109709F449C0A815B905C9F5ED90FC903B
:1036A0001197670142E0C40ED11CCA14DB0478F103
:1036B00047018A189B08640142E0C40ED11C12968F
:1036C000BC9012971396AC91B5E0CB16D10440F0A4
:1036D000B282A38391828082D9018D939C9309C089
:1036E0000E5F1F4F0E0D1F1DF90111830083EB2D7F
:1036F000FA2F6115710531F0DB011396FC93EE93FF
:10370000129744C0F093F802E093F7023FC06D9126
:103710007C9111976616770608F43B01BD0112965D
:103720000D90BC91A02DB4CF6091F5027091F6027E
:1037300068157905E9F468167906D0F4409100011E
:10374000509101014115510541F44DB75EB76091AB
:10375000040170910501461B570BE417F507C0F4EF
:10376000F093F602E093F502F901918380830EC095
:103770000E94DE197C01009759F0A801BE010E9449
:10378000CF1BCE010E94761AC70104C0CE0102C031
:1037900080E090E0CDB7DEB7EEE00C94081CFB01B2
:1037A000DC0102C001900D9241505040D8F70895BD
:1037B000FB01DC018D91019080190110D9F3990B67
:1037C0000895FB01DC0101900D920020E1F70895BE
:1037D0002F923F924F925F926F927F928F929F9221
:1037E000AF92BF92CF92DF92EF92FF920F931F930F
:1037F000CF93DF93CDB7DEB7CA1BDB0B0FB6F894C0
:10380000DEBF0FBECDBF09942A88398848885F84FF
:103810006E847D848C849B84AA84B984C884DF8070
:10382000EE80FD800C811B81AA81B981CE0FD11D54
:103830000FB6F894DEBF0FBECDBFED010895F8942A
:02384000FFCFB8
:103842000000F90280000100000000C0DEADBEEF02
:10385200FEED01005E0000000000000046056F055D
:1038620089059205B005D3056106D705AC05BE06EC
:10387200F8065C0537053A0564053C0500000000C2
:103882002707ED073D0700000000DC082509D808DE
:1038920039097F09F208980904091909BF0A21099F
:1038A200C5096209BD08C408D408150A31003000F0
:1038B200636F6E6E656374656400524649443A20D4
:1038C20000636F6E6E656374696F6E206661696C0A
:1038D200656400496E636F6D696E6720636C69652C
:1038E2006E74210000000000E615CC1768158115E2
:1038F2007315C4150000000052170D0A006E616EA8
:0C39020000696E66006F7666002E000003
:00000001FF
